{
  "_format": "hh-sol-artifact-1",
  "contractName": "Fractionaliser",
  "sourceName": "contracts/Fractionaliser.sol",
  "abi": [
    {
      "inputs": [
        {
          "internalType": "address",
          "name": "_nftMinterAddress",
          "type": "address"
        },
        {
          "internalType": "uint256",
          "name": "_fractionalisationFee",
          "type": "uint256"
        },
        {
          "internalType": "address",
          "name": "_paymentAddress",
          "type": "address"
        }
      ],
      "stateMutability": "nonpayable",
      "type": "constructor"
    },
    {
      "anonymous": false,
      "inputs": [
        {
          "indexed": true,
          "internalType": "address",
          "name": "owner",
          "type": "address"
        },
        {
          "indexed": true,
          "internalType": "address",
          "name": "spender",
          "type": "address"
        },
        {
          "indexed": false,
          "internalType": "uint256",
          "name": "value",
          "type": "uint256"
        }
      ],
      "name": "Approval",
      "type": "event"
    },
    {
      "anonymous": false,
      "inputs": [
        {
          "indexed": true,
          "internalType": "address",
          "name": "from",
          "type": "address"
        },
        {
          "indexed": true,
          "internalType": "address",
          "name": "to",
          "type": "address"
        },
        {
          "indexed": false,
          "internalType": "uint256",
          "name": "value",
          "type": "uint256"
        }
      ],
      "name": "Transfer",
      "type": "event"
    },
    {
      "inputs": [],
      "name": "EURAmount",
      "outputs": [
        {
          "internalType": "uint256",
          "name": "",
          "type": "uint256"
        }
      ],
      "stateMutability": "view",
      "type": "function"
    },
    {
      "inputs": [
        {
          "internalType": "address",
          "name": "owner",
          "type": "address"
        },
        {
          "internalType": "address",
          "name": "spender",
          "type": "address"
        }
      ],
      "name": "allowance",
      "outputs": [
        {
          "internalType": "uint256",
          "name": "",
          "type": "uint256"
        }
      ],
      "stateMutability": "view",
      "type": "function"
    },
    {
      "inputs": [
        {
          "internalType": "address",
          "name": "spender",
          "type": "address"
        },
        {
          "internalType": "uint256",
          "name": "amount",
          "type": "uint256"
        }
      ],
      "name": "approve",
      "outputs": [
        {
          "internalType": "bool",
          "name": "",
          "type": "bool"
        }
      ],
      "stateMutability": "nonpayable",
      "type": "function"
    },
    {
      "inputs": [
        {
          "internalType": "address",
          "name": "account",
          "type": "address"
        }
      ],
      "name": "balanceOf",
      "outputs": [
        {
          "internalType": "uint256",
          "name": "",
          "type": "uint256"
        }
      ],
      "stateMutability": "view",
      "type": "function"
    },
    {
      "inputs": [],
      "name": "decimals",
      "outputs": [
        {
          "internalType": "uint8",
          "name": "",
          "type": "uint8"
        }
      ],
      "stateMutability": "view",
      "type": "function"
    },
    {
      "inputs": [
        {
          "internalType": "address",
          "name": "spender",
          "type": "address"
        },
        {
          "internalType": "uint256",
          "name": "subtractedValue",
          "type": "uint256"
        }
      ],
      "name": "decreaseAllowance",
      "outputs": [
        {
          "internalType": "bool",
          "name": "",
          "type": "bool"
        }
      ],
      "stateMutability": "nonpayable",
      "type": "function"
    },
    {
      "inputs": [],
      "name": "eEUR",
      "outputs": [
        {
          "internalType": "contract IERC20",
          "name": "",
          "type": "address"
        }
      ],
      "stateMutability": "view",
      "type": "function"
    },
    {
      "inputs": [],
      "name": "fractionalisationFee",
      "outputs": [
        {
          "internalType": "uint256",
          "name": "",
          "type": "uint256"
        }
      ],
      "stateMutability": "view",
      "type": "function"
    },
    {
      "inputs": [
        {
          "internalType": "uint256",
          "name": "_nftId",
          "type": "uint256"
        },
        {
          "internalType": "uint256",
          "name": "_fractionsAmount",
          "type": "uint256"
        }
      ],
      "name": "fractionalise",
      "outputs": [],
      "stateMutability": "nonpayable",
      "type": "function"
    },
    {
      "inputs": [],
      "name": "fractionsAmount",
      "outputs": [
        {
          "internalType": "uint256",
          "name": "",
          "type": "uint256"
        }
      ],
      "stateMutability": "view",
      "type": "function"
    },
    {
      "inputs": [
        {
          "internalType": "address",
          "name": "spender",
          "type": "address"
        },
        {
          "internalType": "uint256",
          "name": "addedValue",
          "type": "uint256"
        }
      ],
      "name": "increaseAllowance",
      "outputs": [
        {
          "internalType": "bool",
          "name": "",
          "type": "bool"
        }
      ],
      "stateMutability": "nonpayable",
      "type": "function"
    },
    {
      "inputs": [
        {
          "internalType": "address",
          "name": "",
          "type": "address"
        }
      ],
      "name": "lockTime",
      "outputs": [
        {
          "internalType": "uint256",
          "name": "",
          "type": "uint256"
        }
      ],
      "stateMutability": "view",
      "type": "function"
    },
    {
      "inputs": [],
      "name": "name",
      "outputs": [
        {
          "internalType": "string",
          "name": "",
          "type": "string"
        }
      ],
      "stateMutability": "view",
      "type": "function"
    },
    {
      "inputs": [],
      "name": "nftId",
      "outputs": [
        {
          "internalType": "uint256",
          "name": "",
          "type": "uint256"
        }
      ],
      "stateMutability": "view",
      "type": "function"
    },
    {
      "inputs": [],
      "name": "nftMinter",
      "outputs": [
        {
          "internalType": "contract IERC721",
          "name": "",
          "type": "address"
        }
      ],
      "stateMutability": "view",
      "type": "function"
    },
    {
      "inputs": [],
      "name": "requestTokens",
      "outputs": [],
      "stateMutability": "nonpayable",
      "type": "function"
    },
    {
      "inputs": [],
      "name": "symbol",
      "outputs": [
        {
          "internalType": "string",
          "name": "",
          "type": "string"
        }
      ],
      "stateMutability": "view",
      "type": "function"
    },
    {
      "inputs": [],
      "name": "totalSupply",
      "outputs": [
        {
          "internalType": "uint256",
          "name": "",
          "type": "uint256"
        }
      ],
      "stateMutability": "view",
      "type": "function"
    },
    {
      "inputs": [
        {
          "internalType": "address",
          "name": "recipient",
          "type": "address"
        },
        {
          "internalType": "uint256",
          "name": "amount",
          "type": "uint256"
        }
      ],
      "name": "transfer",
      "outputs": [
        {
          "internalType": "bool",
          "name": "",
          "type": "bool"
        }
      ],
      "stateMutability": "nonpayable",
      "type": "function"
    },
    {
      "inputs": [
        {
          "internalType": "address",
          "name": "sender",
          "type": "address"
        },
        {
          "internalType": "address",
          "name": "recipient",
          "type": "address"
        },
        {
          "internalType": "uint256",
          "name": "amount",
          "type": "uint256"
        }
      ],
      "name": "transferFrom",
      "outputs": [
        {
          "internalType": "bool",
          "name": "",
          "type": "bool"
        }
      ],
      "stateMutability": "nonpayable",
      "type": "function"
    }
  ],
  "bytecode": "0x60806040523480156200001157600080fd5b50604051620011e1380380620011e18339810160408190526200003491620001c0565b6040518060400160405280601681526020017f50562d4f776e657273686970204672616374696f6e730000000000000000000081525060405180604001604052806003815260200162282b2360e91b81525081600390805190602001906200009e929190620000fd565b508051620000b4906004906020840190620000fd565b505050600991909155600580546001600160a01b03199081163317909155600680546001600160a01b03938416908316179055600780549390921692169190911790556200023d565b8280546200010b9062000200565b90600052602060002090601f0160209004810192826200012f57600085556200017a565b82601f106200014a57805160ff19168380011785556200017a565b828001600101855582156200017a579182015b828111156200017a5782518255916020019190600101906200015d565b50620001889291506200018c565b5090565b5b808211156200018857600081556001016200018d565b80516001600160a01b0381168114620001bb57600080fd5b919050565b600080600060608486031215620001d5578283fd5b620001e084620001a3565b925060208401519150620001f760408501620001a3565b90509250925092565b6002810460018216806200021557607f821691505b602082108114156200023757634e487b7160e01b600052602260045260246000fd5b50919050565b610f94806200024d6000396000f3fe608060405234801561001057600080fd5b506004361061016c5760003560e01c80636c0361e7116100cd578063a4beda6311610081578063c6bc518211610066578063c6bc51821461029d578063dc67cbcb146102a5578063dd62ed3e146102ad5761016c565b8063a4beda6314610277578063a9059cbb1461028a5761016c565b806395d89b41116100b257806395d89b4114610254578063a1164e7a1461025c578063a457c2d7146102645761016c565b80636c0361e71461022e57806370a08231146102415761016c565b8063359cf2b711610124578063598433e411610109578063598433e4146102095780635e1599c71461021157806362669bf4146102265761016c565b8063359cf2b7146101ec57806339509351146101f65761016c565b806318160ddd1161015557806318160ddd146101af57806323b872dd146101c4578063313ce567146101d75761016c565b806306fdde0314610171578063095ea7b31461018f575b600080fd5b6101796102c0565b6040516101869190610b4d565b60405180910390f35b6101a261019d366004610aa0565b610352565b6040516101869190610b2e565b6101b761036f565b6040516101869190610ebf565b6101a26101d2366004610a65565b610375565b6101df61040e565b6040516101869190610ec8565b6101f4610413565b005b6101a2610204366004610aa0565b610474565b6101b76104c8565b6102196104ce565b6040516101869190610b39565b6101b76104dd565b6101f461023c366004610ae9565b6104e3565b6101b761024f366004610a12565b61063d565b61017961065c565b61021961066b565b6101a2610272366004610aa0565b61067a565b6101b7610285366004610a12565b6106f3565b6101a2610298366004610aa0565b610705565b6101b7610719565b6101b761071f565b6101b76102bb366004610a33565b610725565b6060600380546102cf90610f0d565b80601f01602080910402602001604051908101604052809291908181526020018280546102fb90610f0d565b80156103485780601f1061031d57610100808354040283529160200191610348565b820191906000526020600020905b81548152906001019060200180831161032b57829003601f168201915b5050505050905090565b600061036661035f610750565b8484610754565b50600192915050565b60025490565b6000610382848484610808565b6001600160a01b0384166000908152600160205260408120816103a3610750565b6001600160a01b03166001600160a01b03168152602001908152602001600020549050828110156103ef5760405162461bcd60e51b81526004016103e690610d14565b60405180910390fd5b610403856103fb610750565b858403610754565b506001949350505050565b601290565b336000908152600c602052604090205442116104415760405162461bcd60e51b81526004016103e690610cb7565b69021e19e0c9bab24000006104563382610932565b61046142600a610ed6565b336000908152600c602052604090205550565b6000610366610481610750565b84846001600061048f610750565b6001600160a01b03908116825260208083019390935260409182016000908120918b16815292529020546104c39190610ed6565b610754565b600b5481565b600e546001600160a01b031681565b60085481565b600a829055600754600d80547fffffffffffffffffffffffff00000000000000000000000000000000000000009081166001600160a01b0393841617918290556008849055600654600e80549092169084161790556040516323b872dd60e01b81529116906323b872dd9061056090339030908790600401610b0a565b600060405180830381600087803b15801561057a57600080fd5b505af115801561058e573d6000803e3d6000fd5b505050506009546008546105a29190610eee565b600b819055600e546040516323b872dd60e01b81526001600160a01b03909116916323b872dd916105da913391309190600401610b0a565b602060405180830381600087803b1580156105f457600080fd5b505af1158015610608573d6000803e3d6000fd5b505050506040513d601f19601f8201168201806040525081019061062c9190610ac9565b5061063933600854610932565b5050565b6001600160a01b0381166000908152602081905260409020545b919050565b6060600480546102cf90610f0d565b600d546001600160a01b031681565b60008060016000610689610750565b6001600160a01b03908116825260208083019390935260409182016000908120918816815292529020549050828110156106d55760405162461bcd60e51b81526004016103e690610e2b565b6106e96106e0610750565b85858403610754565b5060019392505050565b600c6020526000908152604090205481565b6000610366610712610750565b8484610808565b600a5481565b60095481565b6001600160a01b03918216600090815260016020908152604080832093909416825291909152205490565b3390565b6001600160a01b03831661077a5760405162461bcd60e51b81526004016103e690610dce565b6001600160a01b0382166107a05760405162461bcd60e51b81526004016103e690610bfd565b6001600160a01b0380841660008181526001602090815260408083209487168084529490915290819020849055517f8c5be1e5ebec7d5bd14f71427d1e84f3dd0314c0f7b2291e5b200ac8c7c3b925906107fb908590610ebf565b60405180910390a3505050565b6001600160a01b03831661082e5760405162461bcd60e51b81526004016103e690610d71565b6001600160a01b0382166108545760405162461bcd60e51b81526004016103e690610ba0565b61085f8383836109f6565b6001600160a01b038316600090815260208190526040902054818110156108985760405162461bcd60e51b81526004016103e690610c5a565b6001600160a01b038085166000908152602081905260408082208585039055918516815290812080548492906108cf908490610ed6565b92505081905550826001600160a01b0316846001600160a01b03167fddf252ad1be2c89b69c2b068fc378daa952ba7f163c4a11628f55a4df523b3ef846040516109199190610ebf565b60405180910390a361092c8484846109f6565b50505050565b6001600160a01b0382166109585760405162461bcd60e51b81526004016103e690610e88565b610964600083836109f6565b80600260008282546109769190610ed6565b90915550506001600160a01b038216600090815260208190526040812080548392906109a3908490610ed6565b90915550506040516001600160a01b038316906000907fddf252ad1be2c89b69c2b068fc378daa952ba7f163c4a11628f55a4df523b3ef906109e6908590610ebf565b60405180910390a3610639600083835b505050565b80356001600160a01b038116811461065757600080fd5b600060208284031215610a23578081fd5b610a2c826109fb565b9392505050565b60008060408385031215610a45578081fd5b610a4e836109fb565b9150610a5c602084016109fb565b90509250929050565b600080600060608486031215610a79578081fd5b610a82846109fb565b9250610a90602085016109fb565b9150604084013590509250925092565b60008060408385031215610ab2578182fd5b610abb836109fb565b946020939093013593505050565b600060208284031215610ada578081fd5b81518015158114610a2c578182fd5b60008060408385031215610afb578182fd5b50508035926020909101359150565b6001600160a01b039384168152919092166020820152604081019190915260600190565b901515815260200190565b6001600160a01b0391909116815260200190565b6000602080835283518082850152825b81811015610b7957858101830151858201604001528201610b5d565b81811115610b8a5783604083870101525b50601f01601f1916929092016040019392505050565b60208082526023908201527f45524332303a207472616e7366657220746f20746865207a65726f206164647260408201527f6573730000000000000000000000000000000000000000000000000000000000606082015260800190565b60208082526022908201527f45524332303a20617070726f766520746f20746865207a65726f20616464726560408201527f7373000000000000000000000000000000000000000000000000000000000000606082015260800190565b60208082526026908201527f45524332303a207472616e7366657220616d6f756e742065786365656473206260408201527f616c616e63650000000000000000000000000000000000000000000000000000606082015260800190565b60208082526031908201527f6c6f636b2074696d6520686173206e6f7420657870697265642e20506c65617360408201527f652074727920616761696e206c61746572000000000000000000000000000000606082015260800190565b60208082526028908201527f45524332303a207472616e7366657220616d6f756e742065786365656473206160408201527f6c6c6f77616e6365000000000000000000000000000000000000000000000000606082015260800190565b60208082526025908201527f45524332303a207472616e736665722066726f6d20746865207a65726f20616460408201527f6472657373000000000000000000000000000000000000000000000000000000606082015260800190565b60208082526024908201527f45524332303a20617070726f76652066726f6d20746865207a65726f2061646460408201527f7265737300000000000000000000000000000000000000000000000000000000606082015260800190565b60208082526025908201527f45524332303a2064656372656173656420616c6c6f77616e63652062656c6f7760408201527f207a65726f000000000000000000000000000000000000000000000000000000606082015260800190565b6020808252601f908201527f45524332303a206d696e7420746f20746865207a65726f206164647265737300604082015260600190565b90815260200190565b60ff91909116815260200190565b60008219821115610ee957610ee9610f48565b500190565b6000816000190483118215151615610f0857610f08610f48565b500290565b600281046001821680610f2157607f821691505b60208210811415610f4257634e487b7160e01b600052602260045260246000fd5b50919050565b634e487b7160e01b600052601160045260246000fdfea26469706673582212205ee9c3127117787799662536543ce490644bccccb71e1954609be2fd4c4a452364736f6c63430008010033",
  "linkReferences": {},
  "deployedLinkReferences": {}
}