{
  "_format": "hh-sol-artifact-1",
  "contractName": "Fractionaliser",
  "sourceName": "contracts/Fractionaliser.sol",
  "abi": [
    {
      "inputs": [
        {
          "internalType": "address",
          "name": "_nftMinterAddress",
          "type": "address"
        },
        {
          "internalType": "uint256",
          "name": "_fractionalisationFee",
          "type": "uint256"
        },
        {
          "internalType": "address",
          "name": "_paymentAddress",
          "type": "address"
        }
      ],
      "stateMutability": "nonpayable",
      "type": "constructor"
    },
    {
      "anonymous": false,
      "inputs": [
        {
          "indexed": true,
          "internalType": "address",
          "name": "owner",
          "type": "address"
        },
        {
          "indexed": true,
          "internalType": "address",
          "name": "spender",
          "type": "address"
        },
        {
          "indexed": false,
          "internalType": "uint256",
          "name": "value",
          "type": "uint256"
        }
      ],
      "name": "Approval",
      "type": "event"
    },
    {
      "anonymous": false,
      "inputs": [
        {
          "indexed": true,
          "internalType": "address",
          "name": "from",
          "type": "address"
        },
        {
          "indexed": true,
          "internalType": "address",
          "name": "to",
          "type": "address"
        },
        {
          "indexed": false,
          "internalType": "uint256",
          "name": "value",
          "type": "uint256"
        }
      ],
      "name": "Transfer",
      "type": "event"
    },
    {
      "inputs": [],
      "name": "EURAmount",
      "outputs": [
        {
          "internalType": "uint256",
          "name": "",
          "type": "uint256"
        }
      ],
      "stateMutability": "view",
      "type": "function"
    },
    {
      "inputs": [
        {
          "internalType": "address",
          "name": "owner",
          "type": "address"
        },
        {
          "internalType": "address",
          "name": "spender",
          "type": "address"
        }
      ],
      "name": "allowance",
      "outputs": [
        {
          "internalType": "uint256",
          "name": "",
          "type": "uint256"
        }
      ],
      "stateMutability": "view",
      "type": "function"
    },
    {
      "inputs": [
        {
          "internalType": "address",
          "name": "spender",
          "type": "address"
        },
        {
          "internalType": "uint256",
          "name": "amount",
          "type": "uint256"
        }
      ],
      "name": "approve",
      "outputs": [
        {
          "internalType": "bool",
          "name": "",
          "type": "bool"
        }
      ],
      "stateMutability": "nonpayable",
      "type": "function"
    },
    {
      "inputs": [
        {
          "internalType": "address",
          "name": "account",
          "type": "address"
        }
      ],
      "name": "balanceOf",
      "outputs": [
        {
          "internalType": "uint256",
          "name": "",
          "type": "uint256"
        }
      ],
      "stateMutability": "view",
      "type": "function"
    },
    {
      "inputs": [],
      "name": "decimals",
      "outputs": [
        {
          "internalType": "uint8",
          "name": "",
          "type": "uint8"
        }
      ],
      "stateMutability": "view",
      "type": "function"
    },
    {
      "inputs": [
        {
          "internalType": "address",
          "name": "spender",
          "type": "address"
        },
        {
          "internalType": "uint256",
          "name": "subtractedValue",
          "type": "uint256"
        }
      ],
      "name": "decreaseAllowance",
      "outputs": [
        {
          "internalType": "bool",
          "name": "",
          "type": "bool"
        }
      ],
      "stateMutability": "nonpayable",
      "type": "function"
    },
    {
      "inputs": [],
      "name": "eEUR",
      "outputs": [
        {
          "internalType": "contract IERC20",
          "name": "",
          "type": "address"
        }
      ],
      "stateMutability": "view",
      "type": "function"
    },
    {
      "inputs": [],
      "name": "fractionalisationFee",
      "outputs": [
        {
          "internalType": "uint256",
          "name": "",
          "type": "uint256"
        }
      ],
      "stateMutability": "view",
      "type": "function"
    },
    {
      "inputs": [
        {
          "internalType": "uint256",
          "name": "_nftId",
          "type": "uint256"
        },
        {
          "internalType": "uint256",
          "name": "_fractionsAmount",
          "type": "uint256"
        }
      ],
      "name": "fractionalise",
      "outputs": [],
      "stateMutability": "nonpayable",
      "type": "function"
    },
    {
      "inputs": [],
      "name": "fractionsAmount",
      "outputs": [
        {
          "internalType": "uint256",
          "name": "",
          "type": "uint256"
        }
      ],
      "stateMutability": "view",
      "type": "function"
    },
    {
      "inputs": [
        {
          "internalType": "address",
          "name": "spender",
          "type": "address"
        },
        {
          "internalType": "uint256",
          "name": "addedValue",
          "type": "uint256"
        }
      ],
      "name": "increaseAllowance",
      "outputs": [
        {
          "internalType": "bool",
          "name": "",
          "type": "bool"
        }
      ],
      "stateMutability": "nonpayable",
      "type": "function"
    },
    {
      "inputs": [],
      "name": "name",
      "outputs": [
        {
          "internalType": "string",
          "name": "",
          "type": "string"
        }
      ],
      "stateMutability": "view",
      "type": "function"
    },
    {
      "inputs": [],
      "name": "nftId",
      "outputs": [
        {
          "internalType": "uint256",
          "name": "",
          "type": "uint256"
        }
      ],
      "stateMutability": "view",
      "type": "function"
    },
    {
      "inputs": [],
      "name": "nftMinter",
      "outputs": [
        {
          "internalType": "contract IERC721",
          "name": "",
          "type": "address"
        }
      ],
      "stateMutability": "view",
      "type": "function"
    },
    {
      "inputs": [],
      "name": "symbol",
      "outputs": [
        {
          "internalType": "string",
          "name": "",
          "type": "string"
        }
      ],
      "stateMutability": "view",
      "type": "function"
    },
    {
      "inputs": [],
      "name": "totalSupply",
      "outputs": [
        {
          "internalType": "uint256",
          "name": "",
          "type": "uint256"
        }
      ],
      "stateMutability": "view",
      "type": "function"
    },
    {
      "inputs": [
        {
          "internalType": "address",
          "name": "recipient",
          "type": "address"
        },
        {
          "internalType": "uint256",
          "name": "amount",
          "type": "uint256"
        }
      ],
      "name": "transfer",
      "outputs": [
        {
          "internalType": "bool",
          "name": "",
          "type": "bool"
        }
      ],
      "stateMutability": "nonpayable",
      "type": "function"
    },
    {
      "inputs": [
        {
          "internalType": "address",
          "name": "sender",
          "type": "address"
        },
        {
          "internalType": "address",
          "name": "recipient",
          "type": "address"
        },
        {
          "internalType": "uint256",
          "name": "amount",
          "type": "uint256"
        }
      ],
      "name": "transferFrom",
      "outputs": [
        {
          "internalType": "bool",
          "name": "",
          "type": "bool"
        }
      ],
      "stateMutability": "nonpayable",
      "type": "function"
    }
  ],
  "bytecode": "0x60806040523480156200001157600080fd5b50604051620010c0380380620010c08339810160408190526200003491620001c0565b6040518060400160405280601681526020017f50562d4f776e657273686970204672616374696f6e730000000000000000000081525060405180604001604052806003815260200162282b2360e91b81525081600390805190602001906200009e929190620000fd565b508051620000b4906004906020840190620000fd565b505050600991909155600580546001600160a01b03199081163317909155600680546001600160a01b03938416908316179055600780549390921692169190911790556200023d565b8280546200010b9062000200565b90600052602060002090601f0160209004810192826200012f57600085556200017a565b82601f106200014a57805160ff19168380011785556200017a565b828001600101855582156200017a579182015b828111156200017a5782518255916020019190600101906200015d565b50620001889291506200018c565b5090565b5b808211156200018857600081556001016200018d565b80516001600160a01b0381168114620001bb57600080fd5b919050565b600080600060608486031215620001d5578283fd5b620001e084620001a3565b925060208401519150620001f760408501620001a3565b90509250925092565b6002810460018216806200021557607f821691505b602082108114156200023757634e487b7160e01b600052602260045260246000fd5b50919050565b610e73806200024d6000396000f3fe608060405234801561001057600080fd5b50600436106101365760003560e01c80636c0361e7116100b2578063a457c2d711610081578063c6bc518211610066578063c6bc51821461024c578063dc67cbcb14610254578063dd62ed3e1461025c57610136565b8063a457c2d714610226578063a9059cbb1461023957610136565b80636c0361e7146101ee57806370a082311461020357806395d89b4114610216578063a1164e7a1461021e57610136565b8063313ce56711610109578063598433e4116100ee578063598433e4146101c95780635e1599c7146101d157806362669bf4146101e657610136565b8063313ce567146101a157806339509351146101b657610136565b806306fdde031461013b578063095ea7b31461015957806318160ddd1461017957806323b872dd1461018e575b600080fd5b61014361026f565b6040516101509190610a89565b60405180910390f35b61016c6101673660046109dc565b610301565b6040516101509190610a6a565b61018161031e565b6040516101509190610d9e565b61016c61019c3660046109a1565b610324565b6101a96103bd565b6040516101509190610da7565b61016c6101c43660046109dc565b6103c2565b610181610416565b6101d961041c565b6040516101509190610a75565b61018161042b565b6102016101fc366004610a25565b610431565b005b61018161021136600461094e565b61058b565b6101436105aa565b6101d96105b9565b61016c6102343660046109dc565b6105c8565b61016c6102473660046109dc565b610641565b610181610655565b61018161065b565b61018161026a36600461096f565b610661565b60606003805461027e90610dec565b80601f01602080910402602001604051908101604052809291908181526020018280546102aa90610dec565b80156102f75780601f106102cc576101008083540402835291602001916102f7565b820191906000526020600020905b8154815290600101906020018083116102da57829003601f168201915b5050505050905090565b600061031561030e61068c565b8484610690565b50600192915050565b60025490565b6000610331848484610744565b6001600160a01b03841660009081526001602052604081208161035261068c565b6001600160a01b03166001600160a01b031681526020019081526020016000205490508281101561039e5760405162461bcd60e51b815260040161039590610bf3565b60405180910390fd5b6103b2856103aa61068c565b858403610690565b506001949350505050565b601290565b60006103156103cf61068c565b8484600160006103dd61068c565b6001600160a01b03908116825260208083019390935260409182016000908120918b16815292529020546104119190610db5565b610690565b600b5481565b600d546001600160a01b031681565b60085481565b600a829055600754600c80547fffffffffffffffffffffffff00000000000000000000000000000000000000009081166001600160a01b0393841617918290556008849055600654600d80549092169084161790556040516323b872dd60e01b81529116906323b872dd906104ae90339030908790600401610a46565b600060405180830381600087803b1580156104c857600080fd5b505af11580156104dc573d6000803e3d6000fd5b505050506009546008546104f09190610dcd565b600b819055600d546040516323b872dd60e01b81526001600160a01b03909116916323b872dd91610528913391309190600401610a46565b602060405180830381600087803b15801561054257600080fd5b505af1158015610556573d6000803e3d6000fd5b505050506040513d601f19601f8201168201806040525081019061057a9190610a05565b506105873360085461086e565b5050565b6001600160a01b0381166000908152602081905260409020545b919050565b60606004805461027e90610dec565b600c546001600160a01b031681565b600080600160006105d761068c565b6001600160a01b03908116825260208083019390935260409182016000908120918816815292529020549050828110156106235760405162461bcd60e51b815260040161039590610d0a565b61063761062e61068c565b85858403610690565b5060019392505050565b600061031561064e61068c565b8484610744565b600a5481565b60095481565b6001600160a01b03918216600090815260016020908152604080832093909416825291909152205490565b3390565b6001600160a01b0383166106b65760405162461bcd60e51b815260040161039590610cad565b6001600160a01b0382166106dc5760405162461bcd60e51b815260040161039590610b39565b6001600160a01b0380841660008181526001602090815260408083209487168084529490915290819020849055517f8c5be1e5ebec7d5bd14f71427d1e84f3dd0314c0f7b2291e5b200ac8c7c3b92590610737908590610d9e565b60405180910390a3505050565b6001600160a01b03831661076a5760405162461bcd60e51b815260040161039590610c50565b6001600160a01b0382166107905760405162461bcd60e51b815260040161039590610adc565b61079b838383610932565b6001600160a01b038316600090815260208190526040902054818110156107d45760405162461bcd60e51b815260040161039590610b96565b6001600160a01b0380851660009081526020819052604080822085850390559185168152908120805484929061080b908490610db5565b92505081905550826001600160a01b0316846001600160a01b03167fddf252ad1be2c89b69c2b068fc378daa952ba7f163c4a11628f55a4df523b3ef846040516108559190610d9e565b60405180910390a3610868848484610932565b50505050565b6001600160a01b0382166108945760405162461bcd60e51b815260040161039590610d67565b6108a060008383610932565b80600260008282546108b29190610db5565b90915550506001600160a01b038216600090815260208190526040812080548392906108df908490610db5565b90915550506040516001600160a01b038316906000907fddf252ad1be2c89b69c2b068fc378daa952ba7f163c4a11628f55a4df523b3ef90610922908590610d9e565b60405180910390a3610587600083835b505050565b80356001600160a01b03811681146105a557600080fd5b60006020828403121561095f578081fd5b61096882610937565b9392505050565b60008060408385031215610981578081fd5b61098a83610937565b915061099860208401610937565b90509250929050565b6000806000606084860312156109b5578081fd5b6109be84610937565b92506109cc60208501610937565b9150604084013590509250925092565b600080604083850312156109ee578182fd5b6109f783610937565b946020939093013593505050565b600060208284031215610a16578081fd5b81518015158114610968578182fd5b60008060408385031215610a37578182fd5b50508035926020909101359150565b6001600160a01b039384168152919092166020820152604081019190915260600190565b901515815260200190565b6001600160a01b0391909116815260200190565b6000602080835283518082850152825b81811015610ab557858101830151858201604001528201610a99565b81811115610ac65783604083870101525b50601f01601f1916929092016040019392505050565b60208082526023908201527f45524332303a207472616e7366657220746f20746865207a65726f206164647260408201527f6573730000000000000000000000000000000000000000000000000000000000606082015260800190565b60208082526022908201527f45524332303a20617070726f766520746f20746865207a65726f20616464726560408201527f7373000000000000000000000000000000000000000000000000000000000000606082015260800190565b60208082526026908201527f45524332303a207472616e7366657220616d6f756e742065786365656473206260408201527f616c616e63650000000000000000000000000000000000000000000000000000606082015260800190565b60208082526028908201527f45524332303a207472616e7366657220616d6f756e742065786365656473206160408201527f6c6c6f77616e6365000000000000000000000000000000000000000000000000606082015260800190565b60208082526025908201527f45524332303a207472616e736665722066726f6d20746865207a65726f20616460408201527f6472657373000000000000000000000000000000000000000000000000000000606082015260800190565b60208082526024908201527f45524332303a20617070726f76652066726f6d20746865207a65726f2061646460408201527f7265737300000000000000000000000000000000000000000000000000000000606082015260800190565b60208082526025908201527f45524332303a2064656372656173656420616c6c6f77616e63652062656c6f7760408201527f207a65726f000000000000000000000000000000000000000000000000000000606082015260800190565b6020808252601f908201527f45524332303a206d696e7420746f20746865207a65726f206164647265737300604082015260600190565b90815260200190565b60ff91909116815260200190565b60008219821115610dc857610dc8610e27565b500190565b6000816000190483118215151615610de757610de7610e27565b500290565b600281046001821680610e0057607f821691505b60208210811415610e2157634e487b7160e01b600052602260045260246000fd5b50919050565b634e487b7160e01b600052601160045260246000fdfea264697066735822122015e8e865e3fe8b68605db189e1a5d0532d56fb72bb3074f6c5f2246bab6ccec864736f6c63430008010033",
  "linkReferences": {},
  "deployedLinkReferences": {}
}