{
  "_format": "hh-sol-artifact-1",
  "contractName": "OwnershipCreator",
  "sourceName": "contracts/OwnershipCreator.sol",
  "abi": [
    {
      "inputs": [
        {
          "internalType": "string",
          "name": "url",
          "type": "string"
        }
      ],
      "stateMutability": "nonpayable",
      "type": "constructor"
    },
    {
      "anonymous": false,
      "inputs": [
        {
          "indexed": true,
          "internalType": "address",
          "name": "owner",
          "type": "address"
        },
        {
          "indexed": true,
          "internalType": "address",
          "name": "approved",
          "type": "address"
        },
        {
          "indexed": true,
          "internalType": "uint256",
          "name": "tokenId",
          "type": "uint256"
        }
      ],
      "name": "Approval",
      "type": "event"
    },
    {
      "anonymous": false,
      "inputs": [
        {
          "indexed": true,
          "internalType": "address",
          "name": "owner",
          "type": "address"
        },
        {
          "indexed": true,
          "internalType": "address",
          "name": "operator",
          "type": "address"
        },
        {
          "indexed": false,
          "internalType": "bool",
          "name": "approved",
          "type": "bool"
        }
      ],
      "name": "ApprovalForAll",
      "type": "event"
    },
    {
      "anonymous": false,
      "inputs": [
        {
          "indexed": true,
          "internalType": "address",
          "name": "previousOwner",
          "type": "address"
        },
        {
          "indexed": true,
          "internalType": "address",
          "name": "newOwner",
          "type": "address"
        }
      ],
      "name": "OwnershipTransferred",
      "type": "event"
    },
    {
      "anonymous": false,
      "inputs": [
        {
          "indexed": true,
          "internalType": "address",
          "name": "from",
          "type": "address"
        },
        {
          "indexed": true,
          "internalType": "address",
          "name": "to",
          "type": "address"
        },
        {
          "indexed": true,
          "internalType": "uint256",
          "name": "tokenId",
          "type": "uint256"
        }
      ],
      "name": "Transfer",
      "type": "event"
    },
    {
      "inputs": [
        {
          "internalType": "address",
          "name": "to",
          "type": "address"
        }
      ],
      "name": "CreateCertificate",
      "outputs": [],
      "stateMutability": "nonpayable",
      "type": "function"
    },
    {
      "inputs": [],
      "name": "_url",
      "outputs": [
        {
          "internalType": "string",
          "name": "",
          "type": "string"
        }
      ],
      "stateMutability": "view",
      "type": "function"
    },
    {
      "inputs": [
        {
          "internalType": "address",
          "name": "to",
          "type": "address"
        },
        {
          "internalType": "uint256",
          "name": "tokenId",
          "type": "uint256"
        }
      ],
      "name": "approve",
      "outputs": [],
      "stateMutability": "nonpayable",
      "type": "function"
    },
    {
      "inputs": [
        {
          "internalType": "address",
          "name": "owner",
          "type": "address"
        }
      ],
      "name": "balanceOf",
      "outputs": [
        {
          "internalType": "uint256",
          "name": "",
          "type": "uint256"
        }
      ],
      "stateMutability": "view",
      "type": "function"
    },
    {
      "inputs": [
        {
          "internalType": "uint256",
          "name": "tokenId",
          "type": "uint256"
        }
      ],
      "name": "getApproved",
      "outputs": [
        {
          "internalType": "address",
          "name": "",
          "type": "address"
        }
      ],
      "stateMutability": "view",
      "type": "function"
    },
    {
      "inputs": [],
      "name": "getUrl",
      "outputs": [
        {
          "internalType": "string",
          "name": "",
          "type": "string"
        }
      ],
      "stateMutability": "view",
      "type": "function"
    },
    {
      "inputs": [
        {
          "internalType": "address",
          "name": "owner",
          "type": "address"
        },
        {
          "internalType": "address",
          "name": "operator",
          "type": "address"
        }
      ],
      "name": "isApprovedForAll",
      "outputs": [
        {
          "internalType": "bool",
          "name": "",
          "type": "bool"
        }
      ],
      "stateMutability": "view",
      "type": "function"
    },
    {
      "inputs": [],
      "name": "name",
      "outputs": [
        {
          "internalType": "string",
          "name": "",
          "type": "string"
        }
      ],
      "stateMutability": "view",
      "type": "function"
    },
    {
      "inputs": [],
      "name": "nextTokenId",
      "outputs": [
        {
          "internalType": "uint256",
          "name": "",
          "type": "uint256"
        }
      ],
      "stateMutability": "view",
      "type": "function"
    },
    {
      "inputs": [],
      "name": "owner",
      "outputs": [
        {
          "internalType": "address",
          "name": "",
          "type": "address"
        }
      ],
      "stateMutability": "view",
      "type": "function"
    },
    {
      "inputs": [
        {
          "internalType": "uint256",
          "name": "tokenId",
          "type": "uint256"
        }
      ],
      "name": "ownerOf",
      "outputs": [
        {
          "internalType": "address",
          "name": "",
          "type": "address"
        }
      ],
      "stateMutability": "view",
      "type": "function"
    },
    {
      "inputs": [],
      "name": "renounceOwnership",
      "outputs": [],
      "stateMutability": "nonpayable",
      "type": "function"
    },
    {
      "inputs": [
        {
          "internalType": "address",
          "name": "from",
          "type": "address"
        },
        {
          "internalType": "address",
          "name": "to",
          "type": "address"
        },
        {
          "internalType": "uint256",
          "name": "tokenId",
          "type": "uint256"
        }
      ],
      "name": "safeTransferFrom",
      "outputs": [],
      "stateMutability": "nonpayable",
      "type": "function"
    },
    {
      "inputs": [
        {
          "internalType": "address",
          "name": "from",
          "type": "address"
        },
        {
          "internalType": "address",
          "name": "to",
          "type": "address"
        },
        {
          "internalType": "uint256",
          "name": "tokenId",
          "type": "uint256"
        },
        {
          "internalType": "bytes",
          "name": "_data",
          "type": "bytes"
        }
      ],
      "name": "safeTransferFrom",
      "outputs": [],
      "stateMutability": "nonpayable",
      "type": "function"
    },
    {
      "inputs": [
        {
          "internalType": "address",
          "name": "operator",
          "type": "address"
        },
        {
          "internalType": "bool",
          "name": "approved",
          "type": "bool"
        }
      ],
      "name": "setApprovalForAll",
      "outputs": [],
      "stateMutability": "nonpayable",
      "type": "function"
    },
    {
      "inputs": [
        {
          "internalType": "string",
          "name": "url",
          "type": "string"
        }
      ],
      "name": "setUrl",
      "outputs": [],
      "stateMutability": "nonpayable",
      "type": "function"
    },
    {
      "inputs": [
        {
          "internalType": "bytes4",
          "name": "interfaceId",
          "type": "bytes4"
        }
      ],
      "name": "supportsInterface",
      "outputs": [
        {
          "internalType": "bool",
          "name": "",
          "type": "bool"
        }
      ],
      "stateMutability": "view",
      "type": "function"
    },
    {
      "inputs": [],
      "name": "symbol",
      "outputs": [
        {
          "internalType": "string",
          "name": "",
          "type": "string"
        }
      ],
      "stateMutability": "view",
      "type": "function"
    },
    {
      "inputs": [
        {
          "internalType": "uint256",
          "name": "tokenId",
          "type": "uint256"
        }
      ],
      "name": "tokenURI",
      "outputs": [
        {
          "internalType": "string",
          "name": "",
          "type": "string"
        }
      ],
      "stateMutability": "view",
      "type": "function"
    },
    {
      "inputs": [
        {
          "internalType": "address",
          "name": "from",
          "type": "address"
        },
        {
          "internalType": "address",
          "name": "to",
          "type": "address"
        },
        {
          "internalType": "uint256",
          "name": "tokenId",
          "type": "uint256"
        }
      ],
      "name": "transferFrom",
      "outputs": [],
      "stateMutability": "nonpayable",
      "type": "function"
    },
    {
      "inputs": [
        {
          "internalType": "address",
          "name": "newOwner",
          "type": "address"
        }
      ],
      "name": "transferOwnership",
      "outputs": [],
      "stateMutability": "nonpayable",
      "type": "function"
    }
  ],
  "bytecode": "0x60806040523480156200001157600080fd5b5060405162001e4638038062001e468339810160408190526200003491620001e0565b604080518082018252601381527f4f776e6572736869702050562d53797374656d0000000000000000000000000060208083019182528351808501909452600384526227a82b60e91b90840152815191929162000094916000916200013a565b508051620000aa9060019060208401906200013a565b505050620000c7620000c1620000e460201b60201c565b620000e8565b8051620000dc9060089060208401906200013a565b505062000309565b3390565b600680546001600160a01b038381166001600160a01b0319831681179093556040519116919082907f8be0079c531659141344cd1fd0a4f28419497f9722a3daafe3b4186f6b6457e090600090a35050565b8280546200014890620002b6565b90600052602060002090601f0160209004810192826200016c5760008555620001b7565b82601f106200018757805160ff1916838001178555620001b7565b82800160010185558215620001b7579182015b82811115620001b75782518255916020019190600101906200019a565b50620001c5929150620001c9565b5090565b5b80821115620001c55760008155600101620001ca565b60006020808385031215620001f3578182fd5b82516001600160401b03808211156200020a578384fd5b818501915085601f8301126200021e578384fd5b815181811115620002335762000233620002f3565b604051601f8201601f19908116603f011681019083821181831017156200025e576200025e620002f3565b81604052828152888684870101111562000276578687fd5b8693505b828410156200029957848401860151818501870152928501926200027a565b82841115620002aa57868684830101525b98975050505050505050565b600281046001821680620002cb57607f821691505b60208210811415620002ed57634e487b7160e01b600052602260045260246000fd5b50919050565b634e487b7160e01b600052604160045260246000fd5b611b2d80620003196000396000f3fe608060405234801561001057600080fd5b50600436106101775760003560e01c806370a08231116100d8578063a22cb4651161008c578063d6bd872711610066578063d6bd8727146102cf578063e985e9c5146102d7578063f2fde38b146102ea57610177565b8063a22cb46514610296578063b88d4fde146102a9578063c87b56dd146102bc57610177565b806375794a3c116100bd57806375794a3c1461027e5780638da5cb5b1461028657806395d89b411461028e57610177565b806370a0823114610256578063715018a61461027657610177565b806323b872dd1161012f57806326a4300f1161011457806326a4300f1461022857806342842e0e146102305780636352211e1461024357610177565b806323b872dd14610202578063252498a21461021557610177565b8063081812fc11610160578063081812fc146101ba578063095ea7b3146101da57806317210f24146101ef57610177565b806301ffc9a71461017c57806306fdde03146101a5575b600080fd5b61018f61018a36600461134c565b6102fd565b60405161019c919061148d565b60405180910390f35b6101ad610377565b60405161019c9190611498565b6101cd6101c83660046113ca565b610409565b60405161019c919061143d565b6101ed6101e8366004611323565b610455565b005b6101ed6101fd3660046111e9565b6104ed565b6101ed610210366004611235565b610550565b6101ed610223366004611384565b610588565b6101ad6105de565b6101ed61023e366004611235565b61066c565b6101cd6102513660046113ca565b610687565b6102696102643660046111e9565b6106bc565b60405161019c91906119bd565b6101ed610700565b61026961074b565b6101cd610751565b6101ad610760565b6101ed6102a43660046112e9565b61076f565b6101ed6102b7366004611270565b610781565b6101ad6102ca3660046113ca565b6107c0565b6101ad610843565b61018f6102e5366004611203565b610891565b6101ed6102f83660046111e9565b6108bf565b60006001600160e01b031982167f80ac58cd00000000000000000000000000000000000000000000000000000000148061036057506001600160e01b031982167f5b5e139f00000000000000000000000000000000000000000000000000000000145b8061036f575061036f82610930565b90505b919050565b60606000805461038690611a35565b80601f01602080910402602001604051908101604052809291908181526020018280546103b290611a35565b80156103ff5780601f106103d4576101008083540402835291602001916103ff565b820191906000526020600020905b8154815290600101906020018083116103e257829003601f168201915b5050505050905090565b600061041482610962565b6104395760405162461bcd60e51b8152600401610430906117c8565b60405180910390fd5b506000908152600460205260409020546001600160a01b031690565b600061046082610687565b9050806001600160a01b0316836001600160a01b031614156104945760405162461bcd60e51b815260040161043090611903565b806001600160a01b03166104a661097f565b6001600160a01b031614806104c257506104c2816102e561097f565b6104de5760405162461bcd60e51b81526004016104309061167c565b6104e88383610983565b505050565b6104f561097f565b6001600160a01b0316610506610751565b6001600160a01b03161461052c5760405162461bcd60e51b815260040161043090611814565b610538816007546109fe565b6007805490600061054883611a70565b919050555050565b61056161055b61097f565b82610a18565b61057d5760405162461bcd60e51b815260040161043090611960565b6104e8838383610a9d565b61059061097f565b6001600160a01b03166105a1610751565b6001600160a01b0316146105c75760405162461bcd60e51b815260040161043090611814565b80516105da9060089060208401906110c3565b5050565b600880546105eb90611a35565b80601f016020809104026020016040519081016040528092919081815260200182805461061790611a35565b80156106645780601f1061063957610100808354040283529160200191610664565b820191906000526020600020905b81548152906001019060200180831161064757829003601f168201915b505050505081565b6104e883838360405180602001604052806000815250610781565b6000818152600260205260408120546001600160a01b03168061036f5760405162461bcd60e51b815260040161043090611736565b60006001600160a01b0382166106e45760405162461bcd60e51b8152600401610430906116d9565b506001600160a01b031660009081526003602052604090205490565b61070861097f565b6001600160a01b0316610719610751565b6001600160a01b03161461073f5760405162461bcd60e51b815260040161043090611814565b6107496000610bd7565b565b60075481565b6006546001600160a01b031690565b60606001805461038690611a35565b6105da61077a61097f565b8383610c36565b61079261078c61097f565b83610a18565b6107ae5760405162461bcd60e51b815260040161043090611960565b6107ba84848484610cd9565b50505050565b60606107cb82610962565b6107e75760405162461bcd60e51b8152600401610430906118a6565b60006107f1610d0c565b90506000815111610811576040518060200160405280600081525061083c565b8061081b84610d1b565b60405160200161082c92919061140e565b6040516020818303038152906040525b9392505050565b606061084d61097f565b6001600160a01b031661085e610751565b6001600160a01b0316146108845760405162461bcd60e51b815260040161043090611814565b6008805461038690611a35565b6001600160a01b03918216600090815260056020908152604080832093909416825291909152205460ff1690565b6108c761097f565b6001600160a01b03166108d8610751565b6001600160a01b0316146108fe5760405162461bcd60e51b815260040161043090611814565b6001600160a01b0381166109245760405162461bcd60e51b815260040161043090611508565b61092d81610bd7565b50565b6001600160e01b031981167f01ffc9a70000000000000000000000000000000000000000000000000000000014919050565b6000908152600260205260409020546001600160a01b0316151590565b3390565b6000818152600460205260409020805473ffffffffffffffffffffffffffffffffffffffff19166001600160a01b03841690811790915581906109c582610687565b6001600160a01b03167f8c5be1e5ebec7d5bd14f71427d1e84f3dd0314c0f7b2291e5b200ac8c7c3b92560405160405180910390a45050565b6105da828260405180602001604052806000815250610e6a565b6000610a2382610962565b610a3f5760405162461bcd60e51b815260040161043090611630565b6000610a4a83610687565b9050806001600160a01b0316846001600160a01b03161480610a855750836001600160a01b0316610a7a84610409565b6001600160a01b0316145b80610a955750610a958185610891565b949350505050565b826001600160a01b0316610ab082610687565b6001600160a01b031614610ad65760405162461bcd60e51b815260040161043090611849565b6001600160a01b038216610afc5760405162461bcd60e51b81526004016104309061159c565b610b078383836104e8565b610b12600082610983565b6001600160a01b0383166000908152600360205260408120805460019290610b3b9084906119f2565b90915550506001600160a01b0382166000908152600360205260408120805460019290610b699084906119c6565b9091555050600081815260026020526040808220805473ffffffffffffffffffffffffffffffffffffffff19166001600160a01b0386811691821790925591518493918716917fddf252ad1be2c89b69c2b068fc378daa952ba7f163c4a11628f55a4df523b3ef91a4505050565b600680546001600160a01b0383811673ffffffffffffffffffffffffffffffffffffffff19831681179093556040519116919082907f8be0079c531659141344cd1fd0a4f28419497f9722a3daafe3b4186f6b6457e090600090a35050565b816001600160a01b0316836001600160a01b03161415610c685760405162461bcd60e51b8152600401610430906115f9565b6001600160a01b0383811660008181526005602090815260408083209487168084529490915290819020805460ff1916851515179055517f17307eab39ab6107e8899845ad3d59bd9653f200f220920489ca2b5937696c3190610ccc90859061148d565b60405180910390a3505050565b610ce4848484610a9d565b610cf084848484610e9d565b6107ba5760405162461bcd60e51b8152600401610430906114ab565b60606008805461038690611a35565b606081610d5c575060408051808201909152600181527f30000000000000000000000000000000000000000000000000000000000000006020820152610372565b8160005b8115610d865780610d7081611a70565b9150610d7f9050600a836119de565b9150610d60565b60008167ffffffffffffffff811115610daf57634e487b7160e01b600052604160045260246000fd5b6040519080825280601f01601f191660200182016040528015610dd9576020820181803683370190505b5090505b8415610a9557610dee6001836119f2565b9150610dfb600a86611a8b565b610e069060306119c6565b60f81b818381518110610e2957634e487b7160e01b600052603260045260246000fd5b60200101907effffffffffffffffffffffffffffffffffffffffffffffffffffffffffffff1916908160001a905350610e63600a866119de565b9450610ddd565b610e748383610fd1565b610e816000848484610e9d565b6104e85760405162461bcd60e51b8152600401610430906114ab565b6000610eb1846001600160a01b03166110bd565b15610fc657836001600160a01b031663150b7a02610ecd61097f565b8786866040518563ffffffff1660e01b8152600401610eef9493929190611451565b602060405180830381600087803b158015610f0957600080fd5b505af1925050508015610f39575060408051601f3d908101601f19168201909252610f3691810190611368565b60015b610f93573d808015610f67576040519150601f19603f3d011682016040523d82523d6000602084013e610f6c565b606091505b508051610f8b5760405162461bcd60e51b8152600401610430906114ab565b805181602001fd5b6001600160e01b0319167f150b7a0200000000000000000000000000000000000000000000000000000000149050610a95565b506001949350505050565b6001600160a01b038216610ff75760405162461bcd60e51b815260040161043090611793565b61100081610962565b1561101d5760405162461bcd60e51b815260040161043090611565565b611029600083836104e8565b6001600160a01b03821660009081526003602052604081208054600192906110529084906119c6565b9091555050600081815260026020526040808220805473ffffffffffffffffffffffffffffffffffffffff19166001600160a01b03861690811790915590518392907fddf252ad1be2c89b69c2b068fc378daa952ba7f163c4a11628f55a4df523b3ef908290a45050565b3b151590565b8280546110cf90611a35565b90600052602060002090601f0160209004810192826110f15760008555611137565b82601f1061110a57805160ff1916838001178555611137565b82800160010185558215611137579182015b8281111561113757825182559160200191906001019061111c565b50611143929150611147565b5090565b5b808211156111435760008155600101611148565b600067ffffffffffffffff8084111561117757611177611acb565b604051601f8501601f19908116603f0116810190828211818310171561119f5761119f611acb565b816040528093508581528686860111156111b857600080fd5b858560208301376000602087830101525050509392505050565b80356001600160a01b038116811461037257600080fd5b6000602082840312156111fa578081fd5b61083c826111d2565b60008060408385031215611215578081fd5b61121e836111d2565b915061122c602084016111d2565b90509250929050565b600080600060608486031215611249578081fd5b611252846111d2565b9250611260602085016111d2565b9150604084013590509250925092565b60008060008060808587031215611285578081fd5b61128e856111d2565b935061129c602086016111d2565b925060408501359150606085013567ffffffffffffffff8111156112be578182fd5b8501601f810187136112ce578182fd5b6112dd8782356020840161115c565b91505092959194509250565b600080604083850312156112fb578182fd5b611304836111d2565b915060208301358015158114611318578182fd5b809150509250929050565b60008060408385031215611335578182fd5b61133e836111d2565b946020939093013593505050565b60006020828403121561135d578081fd5b813561083c81611ae1565b600060208284031215611379578081fd5b815161083c81611ae1565b600060208284031215611395578081fd5b813567ffffffffffffffff8111156113ab578182fd5b8201601f810184136113bb578182fd5b610a958482356020840161115c565b6000602082840312156113db578081fd5b5035919050565b600081518084526113fa816020860160208601611a09565b601f01601f19169290920160200192915050565b60008351611420818460208801611a09565b835190830190611434818360208801611a09565b01949350505050565b6001600160a01b0391909116815260200190565b60006001600160a01b0380871683528086166020840152508360408301526080606083015261148360808301846113e2565b9695505050505050565b901515815260200190565b60006020825261083c60208301846113e2565b60208082526032908201527f4552433732313a207472616e7366657220746f206e6f6e20455243373231526560408201527f63656976657220696d706c656d656e7465720000000000000000000000000000606082015260800190565b60208082526026908201527f4f776e61626c653a206e6577206f776e657220697320746865207a65726f206160408201527f6464726573730000000000000000000000000000000000000000000000000000606082015260800190565b6020808252601c908201527f4552433732313a20746f6b656e20616c7265616479206d696e74656400000000604082015260600190565b60208082526024908201527f4552433732313a207472616e7366657220746f20746865207a65726f2061646460408201527f7265737300000000000000000000000000000000000000000000000000000000606082015260800190565b60208082526019908201527f4552433732313a20617070726f766520746f2063616c6c657200000000000000604082015260600190565b6020808252602c908201527f4552433732313a206f70657261746f7220717565727920666f72206e6f6e657860408201526b34b9ba32b73a103a37b5b2b760a11b606082015260800190565b60208082526038908201527f4552433732313a20617070726f76652063616c6c6572206973206e6f74206f7760408201527f6e6572206e6f7220617070726f76656420666f7220616c6c0000000000000000606082015260800190565b6020808252602a908201527f4552433732313a2062616c616e636520717565727920666f7220746865207a6560408201527f726f206164647265737300000000000000000000000000000000000000000000606082015260800190565b60208082526029908201527f4552433732313a206f776e657220717565727920666f72206e6f6e657869737460408201527f656e7420746f6b656e0000000000000000000000000000000000000000000000606082015260800190565b6020808252818101527f4552433732313a206d696e7420746f20746865207a65726f2061646472657373604082015260600190565b6020808252602c908201527f4552433732313a20617070726f76656420717565727920666f72206e6f6e657860408201526b34b9ba32b73a103a37b5b2b760a11b606082015260800190565b6020808252818101527f4f776e61626c653a2063616c6c6572206973206e6f7420746865206f776e6572604082015260600190565b60208082526029908201527f4552433732313a207472616e73666572206f6620746f6b656e2074686174206960408201527f73206e6f74206f776e0000000000000000000000000000000000000000000000606082015260800190565b6020808252602f908201527f4552433732314d657461646174613a2055524920717565727920666f72206e6f60408201527f6e6578697374656e7420746f6b656e0000000000000000000000000000000000606082015260800190565b60208082526021908201527f4552433732313a20617070726f76616c20746f2063757272656e74206f776e6560408201527f7200000000000000000000000000000000000000000000000000000000000000606082015260800190565b60208082526031908201527f4552433732313a207472616e736665722063616c6c6572206973206e6f74206f60408201527f776e6572206e6f7220617070726f766564000000000000000000000000000000606082015260800190565b90815260200190565b600082198211156119d9576119d9611a9f565b500190565b6000826119ed576119ed611ab5565b500490565b600082821015611a0457611a04611a9f565b500390565b60005b83811015611a24578181015183820152602001611a0c565b838111156107ba5750506000910152565b600281046001821680611a4957607f821691505b60208210811415611a6a57634e487b7160e01b600052602260045260246000fd5b50919050565b6000600019821415611a8457611a84611a9f565b5060010190565b600082611a9a57611a9a611ab5565b500690565b634e487b7160e01b600052601160045260246000fd5b634e487b7160e01b600052601260045260246000fd5b634e487b7160e01b600052604160045260246000fd5b6001600160e01b03198116811461092d57600080fdfea264697066735822122011732e3364c5ef09fac4a4c8bc284793854d996168299e7c7631528556529b3864736f6c63430008010033",
  "linkReferences": {},
  "deployedLinkReferences": {}
}