{
  "_format": "hh-sol-artifact-1",
  "contractName": "OwnershipCreator",
  "sourceName": "contracts/OwnershipCreator.sol",
  "abi": [
    {
      "inputs": [
        {
          "internalType": "string",
          "name": "url",
          "type": "string"
        }
      ],
      "stateMutability": "nonpayable",
      "type": "constructor"
    },
    {
      "anonymous": false,
      "inputs": [
        {
          "indexed": true,
          "internalType": "address",
          "name": "owner",
          "type": "address"
        },
        {
          "indexed": true,
          "internalType": "address",
          "name": "approved",
          "type": "address"
        },
        {
          "indexed": true,
          "internalType": "uint256",
          "name": "tokenId",
          "type": "uint256"
        }
      ],
      "name": "Approval",
      "type": "event"
    },
    {
      "anonymous": false,
      "inputs": [
        {
          "indexed": true,
          "internalType": "address",
          "name": "owner",
          "type": "address"
        },
        {
          "indexed": true,
          "internalType": "address",
          "name": "operator",
          "type": "address"
        },
        {
          "indexed": false,
          "internalType": "bool",
          "name": "approved",
          "type": "bool"
        }
      ],
      "name": "ApprovalForAll",
      "type": "event"
    },
    {
      "anonymous": false,
      "inputs": [
        {
          "indexed": true,
          "internalType": "address",
          "name": "previousOwner",
          "type": "address"
        },
        {
          "indexed": true,
          "internalType": "address",
          "name": "newOwner",
          "type": "address"
        }
      ],
      "name": "OwnershipTransferred",
      "type": "event"
    },
    {
      "anonymous": false,
      "inputs": [
        {
          "indexed": true,
          "internalType": "address",
          "name": "from",
          "type": "address"
        },
        {
          "indexed": true,
          "internalType": "address",
          "name": "to",
          "type": "address"
        },
        {
          "indexed": true,
          "internalType": "uint256",
          "name": "tokenId",
          "type": "uint256"
        }
      ],
      "name": "Transfer",
      "type": "event"
    },
    {
      "inputs": [
        {
          "internalType": "address",
          "name": "to",
          "type": "address"
        }
      ],
      "name": "CreateCertificate",
      "outputs": [],
      "stateMutability": "nonpayable",
      "type": "function"
    },
    {
      "inputs": [],
      "name": "_url",
      "outputs": [
        {
          "internalType": "string",
          "name": "",
          "type": "string"
        }
      ],
      "stateMutability": "view",
      "type": "function"
    },
    {
      "inputs": [
        {
          "internalType": "address",
          "name": "to",
          "type": "address"
        },
        {
          "internalType": "uint256",
          "name": "tokenId",
          "type": "uint256"
        }
      ],
      "name": "approve",
      "outputs": [],
      "stateMutability": "nonpayable",
      "type": "function"
    },
    {
      "inputs": [
        {
          "internalType": "address",
          "name": "owner",
          "type": "address"
        }
      ],
      "name": "balanceOf",
      "outputs": [
        {
          "internalType": "uint256",
          "name": "",
          "type": "uint256"
        }
      ],
      "stateMutability": "view",
      "type": "function"
    },
    {
      "inputs": [
        {
          "internalType": "uint256",
          "name": "tokenId",
          "type": "uint256"
        }
      ],
      "name": "getApproved",
      "outputs": [
        {
          "internalType": "address",
          "name": "",
          "type": "address"
        }
      ],
      "stateMutability": "view",
      "type": "function"
    },
    {
      "inputs": [],
      "name": "getUrl",
      "outputs": [
        {
          "internalType": "string",
          "name": "",
          "type": "string"
        }
      ],
      "stateMutability": "view",
      "type": "function"
    },
    {
      "inputs": [
        {
          "internalType": "address",
          "name": "owner",
          "type": "address"
        },
        {
          "internalType": "address",
          "name": "operator",
          "type": "address"
        }
      ],
      "name": "isApprovedForAll",
      "outputs": [
        {
          "internalType": "bool",
          "name": "",
          "type": "bool"
        }
      ],
      "stateMutability": "view",
      "type": "function"
    },
    {
      "inputs": [],
      "name": "name",
      "outputs": [
        {
          "internalType": "string",
          "name": "",
          "type": "string"
        }
      ],
      "stateMutability": "view",
      "type": "function"
    },
    {
      "inputs": [],
      "name": "nextTokenId",
      "outputs": [
        {
          "internalType": "uint256",
          "name": "",
          "type": "uint256"
        }
      ],
      "stateMutability": "view",
      "type": "function"
    },
    {
      "inputs": [],
      "name": "owner",
      "outputs": [
        {
          "internalType": "address",
          "name": "",
          "type": "address"
        }
      ],
      "stateMutability": "view",
      "type": "function"
    },
    {
      "inputs": [
        {
          "internalType": "uint256",
          "name": "tokenId",
          "type": "uint256"
        }
      ],
      "name": "ownerOf",
      "outputs": [
        {
          "internalType": "address",
          "name": "",
          "type": "address"
        }
      ],
      "stateMutability": "view",
      "type": "function"
    },
    {
      "inputs": [],
      "name": "renounceOwnership",
      "outputs": [],
      "stateMutability": "nonpayable",
      "type": "function"
    },
    {
      "inputs": [
        {
          "internalType": "address",
          "name": "from",
          "type": "address"
        },
        {
          "internalType": "address",
          "name": "to",
          "type": "address"
        },
        {
          "internalType": "uint256",
          "name": "tokenId",
          "type": "uint256"
        }
      ],
      "name": "safeTransferFrom",
      "outputs": [],
      "stateMutability": "nonpayable",
      "type": "function"
    },
    {
      "inputs": [
        {
          "internalType": "address",
          "name": "from",
          "type": "address"
        },
        {
          "internalType": "address",
          "name": "to",
          "type": "address"
        },
        {
          "internalType": "uint256",
          "name": "tokenId",
          "type": "uint256"
        },
        {
          "internalType": "bytes",
          "name": "_data",
          "type": "bytes"
        }
      ],
      "name": "safeTransferFrom",
      "outputs": [],
      "stateMutability": "nonpayable",
      "type": "function"
    },
    {
      "inputs": [
        {
          "internalType": "address",
          "name": "operator",
          "type": "address"
        },
        {
          "internalType": "bool",
          "name": "approved",
          "type": "bool"
        }
      ],
      "name": "setApprovalForAll",
      "outputs": [],
      "stateMutability": "nonpayable",
      "type": "function"
    },
    {
      "inputs": [
        {
          "internalType": "string",
          "name": "url",
          "type": "string"
        }
      ],
      "name": "setUrl",
      "outputs": [],
      "stateMutability": "nonpayable",
      "type": "function"
    },
    {
      "inputs": [
        {
          "internalType": "bytes4",
          "name": "interfaceId",
          "type": "bytes4"
        }
      ],
      "name": "supportsInterface",
      "outputs": [
        {
          "internalType": "bool",
          "name": "",
          "type": "bool"
        }
      ],
      "stateMutability": "view",
      "type": "function"
    },
    {
      "inputs": [],
      "name": "symbol",
      "outputs": [
        {
          "internalType": "string",
          "name": "",
          "type": "string"
        }
      ],
      "stateMutability": "view",
      "type": "function"
    },
    {
      "inputs": [
        {
          "internalType": "uint256",
          "name": "tokenId",
          "type": "uint256"
        }
      ],
      "name": "tokenURI",
      "outputs": [
        {
          "internalType": "string",
          "name": "",
          "type": "string"
        }
      ],
      "stateMutability": "view",
      "type": "function"
    },
    {
      "inputs": [
        {
          "internalType": "address",
          "name": "from",
          "type": "address"
        },
        {
          "internalType": "address",
          "name": "to",
          "type": "address"
        },
        {
          "internalType": "uint256",
          "name": "tokenId",
          "type": "uint256"
        }
      ],
      "name": "transferFrom",
      "outputs": [],
      "stateMutability": "nonpayable",
      "type": "function"
    },
    {
      "inputs": [
        {
          "internalType": "address",
          "name": "newOwner",
          "type": "address"
        }
      ],
      "name": "transferOwnership",
      "outputs": [],
      "stateMutability": "nonpayable",
      "type": "function"
    }
  ],
  "bytecode": "0x60806040523480156200001157600080fd5b5060405162001e0738038062001e078339810160408190526200003491620001e0565b604080518082018252601381527f4f776e6572736869702050562d53797374656d0000000000000000000000000060208083019182528351808501909452600384526227a82b60e91b90840152815191929162000094916000916200013a565b508051620000aa9060019060208401906200013a565b505050620000c7620000c1620000e460201b60201c565b620000e8565b8051620000dc9060089060208401906200013a565b505062000309565b3390565b600680546001600160a01b038381166001600160a01b0319831681179093556040519116919082907f8be0079c531659141344cd1fd0a4f28419497f9722a3daafe3b4186f6b6457e090600090a35050565b8280546200014890620002b6565b90600052602060002090601f0160209004810192826200016c5760008555620001b7565b82601f106200018757805160ff1916838001178555620001b7565b82800160010185558215620001b7579182015b82811115620001b75782518255916020019190600101906200019a565b50620001c5929150620001c9565b5090565b5b80821115620001c55760008155600101620001ca565b60006020808385031215620001f3578182fd5b82516001600160401b03808211156200020a578384fd5b818501915085601f8301126200021e578384fd5b815181811115620002335762000233620002f3565b604051601f8201601f19908116603f011681019083821181831017156200025e576200025e620002f3565b81604052828152888684870101111562000276578687fd5b8693505b828410156200029957848401860151818501870152928501926200027a565b82841115620002aa57868684830101525b98975050505050505050565b600281046001821680620002cb57607f821691505b60208210811415620002ed57634e487b7160e01b600052602260045260246000fd5b50919050565b634e487b7160e01b600052604160045260246000fd5b611aee80620003196000396000f3fe608060405234801561001057600080fd5b50600436106101775760003560e01c806370a08231116100d8578063a22cb4651161008c578063d6bd872711610066578063d6bd8727146102cf578063e985e9c5146102d7578063f2fde38b146102ea57610177565b8063a22cb46514610296578063b88d4fde146102a9578063c87b56dd146102bc57610177565b806375794a3c116100bd57806375794a3c1461027e5780638da5cb5b1461028657806395d89b411461028e57610177565b806370a0823114610256578063715018a61461027657610177565b806323b872dd1161012f57806326a4300f1161011457806326a4300f1461022857806342842e0e146102305780636352211e1461024357610177565b806323b872dd14610202578063252498a21461021557610177565b8063081812fc11610160578063081812fc146101ba578063095ea7b3146101da57806317210f24146101ef57610177565b806301ffc9a71461017c57806306fdde03146101a5575b600080fd5b61018f61018a36600461130d565b6102fd565b60405161019c919061144e565b60405180910390f35b6101ad610377565b60405161019c9190611459565b6101cd6101c836600461138b565b610409565b60405161019c91906113fe565b6101ed6101e83660046112e4565b610455565b005b6101ed6101fd3660046111aa565b6104ed565b6101ed6102103660046111f6565b610511565b6101ed610223366004611345565b610549565b6101ad61059f565b6101ed61023e3660046111f6565b61062d565b6101cd61025136600461138b565b610648565b6102696102643660046111aa565b61067d565b60405161019c919061197e565b6101ed6106c1565b61026961070c565b6101cd610712565b6101ad610721565b6101ed6102a43660046112aa565b610730565b6101ed6102b7366004611231565b610742565b6101ad6102ca36600461138b565b610781565b6101ad610804565b61018f6102e53660046111c4565b610852565b6101ed6102f83660046111aa565b610880565b60006001600160e01b031982167f80ac58cd00000000000000000000000000000000000000000000000000000000148061036057506001600160e01b031982167f5b5e139f00000000000000000000000000000000000000000000000000000000145b8061036f575061036f826108f1565b90505b919050565b606060008054610386906119f6565b80601f01602080910402602001604051908101604052809291908181526020018280546103b2906119f6565b80156103ff5780601f106103d4576101008083540402835291602001916103ff565b820191906000526020600020905b8154815290600101906020018083116103e257829003601f168201915b5050505050905090565b600061041482610923565b6104395760405162461bcd60e51b815260040161043090611789565b60405180910390fd5b506000908152600460205260409020546001600160a01b031690565b600061046082610648565b9050806001600160a01b0316836001600160a01b031614156104945760405162461bcd60e51b8152600401610430906118c4565b806001600160a01b03166104a6610940565b6001600160a01b031614806104c257506104c2816102e5610940565b6104de5760405162461bcd60e51b81526004016104309061163d565b6104e88383610944565b505050565b6104f9816007546109bf565b6007805490600061050983611a31565b919050555050565b61052261051c610940565b826109d9565b61053e5760405162461bcd60e51b815260040161043090611921565b6104e8838383610a5e565b610551610940565b6001600160a01b0316610562610712565b6001600160a01b0316146105885760405162461bcd60e51b8152600401610430906117d5565b805161059b906008906020840190611084565b5050565b600880546105ac906119f6565b80601f01602080910402602001604051908101604052809291908181526020018280546105d8906119f6565b80156106255780601f106105fa57610100808354040283529160200191610625565b820191906000526020600020905b81548152906001019060200180831161060857829003601f168201915b505050505081565b6104e883838360405180602001604052806000815250610742565b6000818152600260205260408120546001600160a01b03168061036f5760405162461bcd60e51b8152600401610430906116f7565b60006001600160a01b0382166106a55760405162461bcd60e51b81526004016104309061169a565b506001600160a01b031660009081526003602052604090205490565b6106c9610940565b6001600160a01b03166106da610712565b6001600160a01b0316146107005760405162461bcd60e51b8152600401610430906117d5565b61070a6000610b98565b565b60075481565b6006546001600160a01b031690565b606060018054610386906119f6565b61059b61073b610940565b8383610bf7565b61075361074d610940565b836109d9565b61076f5760405162461bcd60e51b815260040161043090611921565b61077b84848484610c9a565b50505050565b606061078c82610923565b6107a85760405162461bcd60e51b815260040161043090611867565b60006107b2610ccd565b905060008151116107d257604051806020016040528060008152506107fd565b806107dc84610cdc565b6040516020016107ed9291906113cf565b6040516020818303038152906040525b9392505050565b606061080e610940565b6001600160a01b031661081f610712565b6001600160a01b0316146108455760405162461bcd60e51b8152600401610430906117d5565b60088054610386906119f6565b6001600160a01b03918216600090815260056020908152604080832093909416825291909152205460ff1690565b610888610940565b6001600160a01b0316610899610712565b6001600160a01b0316146108bf5760405162461bcd60e51b8152600401610430906117d5565b6001600160a01b0381166108e55760405162461bcd60e51b8152600401610430906114c9565b6108ee81610b98565b50565b6001600160e01b031981167f01ffc9a70000000000000000000000000000000000000000000000000000000014919050565b6000908152600260205260409020546001600160a01b0316151590565b3390565b6000818152600460205260409020805473ffffffffffffffffffffffffffffffffffffffff19166001600160a01b038416908117909155819061098682610648565b6001600160a01b03167f8c5be1e5ebec7d5bd14f71427d1e84f3dd0314c0f7b2291e5b200ac8c7c3b92560405160405180910390a45050565b61059b828260405180602001604052806000815250610e2b565b60006109e482610923565b610a005760405162461bcd60e51b8152600401610430906115f1565b6000610a0b83610648565b9050806001600160a01b0316846001600160a01b03161480610a465750836001600160a01b0316610a3b84610409565b6001600160a01b0316145b80610a565750610a568185610852565b949350505050565b826001600160a01b0316610a7182610648565b6001600160a01b031614610a975760405162461bcd60e51b81526004016104309061180a565b6001600160a01b038216610abd5760405162461bcd60e51b81526004016104309061155d565b610ac88383836104e8565b610ad3600082610944565b6001600160a01b0383166000908152600360205260408120805460019290610afc9084906119b3565b90915550506001600160a01b0382166000908152600360205260408120805460019290610b2a908490611987565b9091555050600081815260026020526040808220805473ffffffffffffffffffffffffffffffffffffffff19166001600160a01b0386811691821790925591518493918716917fddf252ad1be2c89b69c2b068fc378daa952ba7f163c4a11628f55a4df523b3ef91a4505050565b600680546001600160a01b0383811673ffffffffffffffffffffffffffffffffffffffff19831681179093556040519116919082907f8be0079c531659141344cd1fd0a4f28419497f9722a3daafe3b4186f6b6457e090600090a35050565b816001600160a01b0316836001600160a01b03161415610c295760405162461bcd60e51b8152600401610430906115ba565b6001600160a01b0383811660008181526005602090815260408083209487168084529490915290819020805460ff1916851515179055517f17307eab39ab6107e8899845ad3d59bd9653f200f220920489ca2b5937696c3190610c8d90859061144e565b60405180910390a3505050565b610ca5848484610a5e565b610cb184848484610e5e565b61077b5760405162461bcd60e51b81526004016104309061146c565b606060088054610386906119f6565b606081610d1d575060408051808201909152600181527f30000000000000000000000000000000000000000000000000000000000000006020820152610372565b8160005b8115610d475780610d3181611a31565b9150610d409050600a8361199f565b9150610d21565b60008167ffffffffffffffff811115610d7057634e487b7160e01b600052604160045260246000fd5b6040519080825280601f01601f191660200182016040528015610d9a576020820181803683370190505b5090505b8415610a5657610daf6001836119b3565b9150610dbc600a86611a4c565b610dc7906030611987565b60f81b818381518110610dea57634e487b7160e01b600052603260045260246000fd5b60200101907effffffffffffffffffffffffffffffffffffffffffffffffffffffffffffff1916908160001a905350610e24600a8661199f565b9450610d9e565b610e358383610f92565b610e426000848484610e5e565b6104e85760405162461bcd60e51b81526004016104309061146c565b6000610e72846001600160a01b031661107e565b15610f8757836001600160a01b031663150b7a02610e8e610940565b8786866040518563ffffffff1660e01b8152600401610eb09493929190611412565b602060405180830381600087803b158015610eca57600080fd5b505af1925050508015610efa575060408051601f3d908101601f19168201909252610ef791810190611329565b60015b610f54573d808015610f28576040519150601f19603f3d011682016040523d82523d6000602084013e610f2d565b606091505b508051610f4c5760405162461bcd60e51b81526004016104309061146c565b805181602001fd5b6001600160e01b0319167f150b7a0200000000000000000000000000000000000000000000000000000000149050610a56565b506001949350505050565b6001600160a01b038216610fb85760405162461bcd60e51b815260040161043090611754565b610fc181610923565b15610fde5760405162461bcd60e51b815260040161043090611526565b610fea600083836104e8565b6001600160a01b0382166000908152600360205260408120805460019290611013908490611987565b9091555050600081815260026020526040808220805473ffffffffffffffffffffffffffffffffffffffff19166001600160a01b03861690811790915590518392907fddf252ad1be2c89b69c2b068fc378daa952ba7f163c4a11628f55a4df523b3ef908290a45050565b3b151590565b828054611090906119f6565b90600052602060002090601f0160209004810192826110b257600085556110f8565b82601f106110cb57805160ff19168380011785556110f8565b828001600101855582156110f8579182015b828111156110f85782518255916020019190600101906110dd565b50611104929150611108565b5090565b5b808211156111045760008155600101611109565b600067ffffffffffffffff8084111561113857611138611a8c565b604051601f8501601f19908116603f0116810190828211818310171561116057611160611a8c565b8160405280935085815286868601111561117957600080fd5b858560208301376000602087830101525050509392505050565b80356001600160a01b038116811461037257600080fd5b6000602082840312156111bb578081fd5b6107fd82611193565b600080604083850312156111d6578081fd5b6111df83611193565b91506111ed60208401611193565b90509250929050565b60008060006060848603121561120a578081fd5b61121384611193565b925061122160208501611193565b9150604084013590509250925092565b60008060008060808587031215611246578081fd5b61124f85611193565b935061125d60208601611193565b925060408501359150606085013567ffffffffffffffff81111561127f578182fd5b8501601f8101871361128f578182fd5b61129e8782356020840161111d565b91505092959194509250565b600080604083850312156112bc578182fd5b6112c583611193565b9150602083013580151581146112d9578182fd5b809150509250929050565b600080604083850312156112f6578182fd5b6112ff83611193565b946020939093013593505050565b60006020828403121561131e578081fd5b81356107fd81611aa2565b60006020828403121561133a578081fd5b81516107fd81611aa2565b600060208284031215611356578081fd5b813567ffffffffffffffff81111561136c578182fd5b8201601f8101841361137c578182fd5b610a568482356020840161111d565b60006020828403121561139c578081fd5b5035919050565b600081518084526113bb8160208601602086016119ca565b601f01601f19169290920160200192915050565b600083516113e18184602088016119ca565b8351908301906113f58183602088016119ca565b01949350505050565b6001600160a01b0391909116815260200190565b60006001600160a01b0380871683528086166020840152508360408301526080606083015261144460808301846113a3565b9695505050505050565b901515815260200190565b6000602082526107fd60208301846113a3565b60208082526032908201527f4552433732313a207472616e7366657220746f206e6f6e20455243373231526560408201527f63656976657220696d706c656d656e7465720000000000000000000000000000606082015260800190565b60208082526026908201527f4f776e61626c653a206e6577206f776e657220697320746865207a65726f206160408201527f6464726573730000000000000000000000000000000000000000000000000000606082015260800190565b6020808252601c908201527f4552433732313a20746f6b656e20616c7265616479206d696e74656400000000604082015260600190565b60208082526024908201527f4552433732313a207472616e7366657220746f20746865207a65726f2061646460408201527f7265737300000000000000000000000000000000000000000000000000000000606082015260800190565b60208082526019908201527f4552433732313a20617070726f766520746f2063616c6c657200000000000000604082015260600190565b6020808252602c908201527f4552433732313a206f70657261746f7220717565727920666f72206e6f6e657860408201526b34b9ba32b73a103a37b5b2b760a11b606082015260800190565b60208082526038908201527f4552433732313a20617070726f76652063616c6c6572206973206e6f74206f7760408201527f6e6572206e6f7220617070726f76656420666f7220616c6c0000000000000000606082015260800190565b6020808252602a908201527f4552433732313a2062616c616e636520717565727920666f7220746865207a6560408201527f726f206164647265737300000000000000000000000000000000000000000000606082015260800190565b60208082526029908201527f4552433732313a206f776e657220717565727920666f72206e6f6e657869737460408201527f656e7420746f6b656e0000000000000000000000000000000000000000000000606082015260800190565b6020808252818101527f4552433732313a206d696e7420746f20746865207a65726f2061646472657373604082015260600190565b6020808252602c908201527f4552433732313a20617070726f76656420717565727920666f72206e6f6e657860408201526b34b9ba32b73a103a37b5b2b760a11b606082015260800190565b6020808252818101527f4f776e61626c653a2063616c6c6572206973206e6f7420746865206f776e6572604082015260600190565b60208082526029908201527f4552433732313a207472616e73666572206f6620746f6b656e2074686174206960408201527f73206e6f74206f776e0000000000000000000000000000000000000000000000606082015260800190565b6020808252602f908201527f4552433732314d657461646174613a2055524920717565727920666f72206e6f60408201527f6e6578697374656e7420746f6b656e0000000000000000000000000000000000606082015260800190565b60208082526021908201527f4552433732313a20617070726f76616c20746f2063757272656e74206f776e6560408201527f7200000000000000000000000000000000000000000000000000000000000000606082015260800190565b60208082526031908201527f4552433732313a207472616e736665722063616c6c6572206973206e6f74206f60408201527f776e6572206e6f7220617070726f766564000000000000000000000000000000606082015260800190565b90815260200190565b6000821982111561199a5761199a611a60565b500190565b6000826119ae576119ae611a76565b500490565b6000828210156119c5576119c5611a60565b500390565b60005b838110156119e55781810151838201526020016119cd565b8381111561077b5750506000910152565b600281046001821680611a0a57607f821691505b60208210811415611a2b57634e487b7160e01b600052602260045260246000fd5b50919050565b6000600019821415611a4557611a45611a60565b5060010190565b600082611a5b57611a5b611a76565b500690565b634e487b7160e01b600052601160045260246000fd5b634e487b7160e01b600052601260045260246000fd5b634e487b7160e01b600052604160045260246000fd5b6001600160e01b0319811681146108ee57600080fdfea264697066735822122003d8babdf753eafd7967e36d3d3fb41532eae36910164a35daa4768535a001d864736f6c63430008010033",
  "linkReferences": {},
  "deployedLinkReferences": {}
}