{
  "_format": "hh-sol-artifact-1",
  "contractName": "ReFiRouter02",
  "sourceName": "contracts/swap/contracts/ReFiSwap/ReFiRouter02.sol",
  "abi": [
    {
      "inputs": [
        {
          "internalType": "address",
          "name": "_factory",
          "type": "address"
        },
        {
          "internalType": "address",
          "name": "_WETH",
          "type": "address"
        }
      ],
      "stateMutability": "nonpayable",
      "type": "constructor"
    },
    {
      "inputs": [],
      "name": "WETH",
      "outputs": [
        {
          "internalType": "address",
          "name": "",
          "type": "address"
        }
      ],
      "stateMutability": "view",
      "type": "function"
    },
    {
      "inputs": [
        {
          "internalType": "address",
          "name": "tokenA",
          "type": "address"
        },
        {
          "internalType": "address",
          "name": "tokenB",
          "type": "address"
        },
        {
          "internalType": "uint256",
          "name": "amountADesired",
          "type": "uint256"
        },
        {
          "internalType": "uint256",
          "name": "amountBDesired",
          "type": "uint256"
        },
        {
          "internalType": "uint256",
          "name": "amountAMin",
          "type": "uint256"
        },
        {
          "internalType": "uint256",
          "name": "amountBMin",
          "type": "uint256"
        },
        {
          "internalType": "address",
          "name": "to",
          "type": "address"
        },
        {
          "internalType": "uint256",
          "name": "deadline",
          "type": "uint256"
        }
      ],
      "name": "addLiquidity",
      "outputs": [
        {
          "internalType": "uint256",
          "name": "amountA",
          "type": "uint256"
        },
        {
          "internalType": "uint256",
          "name": "amountB",
          "type": "uint256"
        },
        {
          "internalType": "uint256",
          "name": "liquidity",
          "type": "uint256"
        }
      ],
      "stateMutability": "nonpayable",
      "type": "function"
    },
    {
      "inputs": [
        {
          "internalType": "address",
          "name": "token",
          "type": "address"
        },
        {
          "internalType": "uint256",
          "name": "amountTokenDesired",
          "type": "uint256"
        },
        {
          "internalType": "uint256",
          "name": "amountTokenMin",
          "type": "uint256"
        },
        {
          "internalType": "uint256",
          "name": "amountETHMin",
          "type": "uint256"
        },
        {
          "internalType": "address",
          "name": "to",
          "type": "address"
        },
        {
          "internalType": "uint256",
          "name": "deadline",
          "type": "uint256"
        }
      ],
      "name": "addLiquidityETH",
      "outputs": [
        {
          "internalType": "uint256",
          "name": "amountToken",
          "type": "uint256"
        },
        {
          "internalType": "uint256",
          "name": "amountETH",
          "type": "uint256"
        },
        {
          "internalType": "uint256",
          "name": "liquidity",
          "type": "uint256"
        }
      ],
      "stateMutability": "payable",
      "type": "function"
    },
    {
      "inputs": [],
      "name": "factory",
      "outputs": [
        {
          "internalType": "address",
          "name": "",
          "type": "address"
        }
      ],
      "stateMutability": "view",
      "type": "function"
    },
    {
      "inputs": [
        {
          "internalType": "uint256",
          "name": "amountOut",
          "type": "uint256"
        },
        {
          "internalType": "uint256",
          "name": "reserveIn",
          "type": "uint256"
        },
        {
          "internalType": "uint256",
          "name": "reserveOut",
          "type": "uint256"
        }
      ],
      "name": "getAmountIn",
      "outputs": [
        {
          "internalType": "uint256",
          "name": "amountIn",
          "type": "uint256"
        }
      ],
      "stateMutability": "pure",
      "type": "function"
    },
    {
      "inputs": [
        {
          "internalType": "uint256",
          "name": "amountIn",
          "type": "uint256"
        },
        {
          "internalType": "uint256",
          "name": "reserveIn",
          "type": "uint256"
        },
        {
          "internalType": "uint256",
          "name": "reserveOut",
          "type": "uint256"
        }
      ],
      "name": "getAmountOut",
      "outputs": [
        {
          "internalType": "uint256",
          "name": "amountOut",
          "type": "uint256"
        }
      ],
      "stateMutability": "pure",
      "type": "function"
    },
    {
      "inputs": [
        {
          "internalType": "uint256",
          "name": "amountOut",
          "type": "uint256"
        },
        {
          "internalType": "address[]",
          "name": "path",
          "type": "address[]"
        }
      ],
      "name": "getAmountsIn",
      "outputs": [
        {
          "internalType": "uint256[]",
          "name": "amounts",
          "type": "uint256[]"
        }
      ],
      "stateMutability": "view",
      "type": "function"
    },
    {
      "inputs": [
        {
          "internalType": "uint256",
          "name": "amountIn",
          "type": "uint256"
        },
        {
          "internalType": "address[]",
          "name": "path",
          "type": "address[]"
        }
      ],
      "name": "getAmountsOut",
      "outputs": [
        {
          "internalType": "uint256[]",
          "name": "amounts",
          "type": "uint256[]"
        }
      ],
      "stateMutability": "view",
      "type": "function"
    },
    {
      "inputs": [
        {
          "internalType": "uint256",
          "name": "amountA",
          "type": "uint256"
        },
        {
          "internalType": "uint256",
          "name": "reserveA",
          "type": "uint256"
        },
        {
          "internalType": "uint256",
          "name": "reserveB",
          "type": "uint256"
        }
      ],
      "name": "quote",
      "outputs": [
        {
          "internalType": "uint256",
          "name": "amountB",
          "type": "uint256"
        }
      ],
      "stateMutability": "pure",
      "type": "function"
    },
    {
      "inputs": [
        {
          "internalType": "address",
          "name": "tokenA",
          "type": "address"
        },
        {
          "internalType": "address",
          "name": "tokenB",
          "type": "address"
        },
        {
          "internalType": "uint256",
          "name": "liquidity",
          "type": "uint256"
        },
        {
          "internalType": "uint256",
          "name": "amountAMin",
          "type": "uint256"
        },
        {
          "internalType": "uint256",
          "name": "amountBMin",
          "type": "uint256"
        },
        {
          "internalType": "address",
          "name": "to",
          "type": "address"
        },
        {
          "internalType": "uint256",
          "name": "deadline",
          "type": "uint256"
        }
      ],
      "name": "removeLiquidity",
      "outputs": [
        {
          "internalType": "uint256",
          "name": "amountA",
          "type": "uint256"
        },
        {
          "internalType": "uint256",
          "name": "amountB",
          "type": "uint256"
        }
      ],
      "stateMutability": "nonpayable",
      "type": "function"
    },
    {
      "inputs": [
        {
          "internalType": "address",
          "name": "token",
          "type": "address"
        },
        {
          "internalType": "uint256",
          "name": "liquidity",
          "type": "uint256"
        },
        {
          "internalType": "uint256",
          "name": "amountTokenMin",
          "type": "uint256"
        },
        {
          "internalType": "uint256",
          "name": "amountETHMin",
          "type": "uint256"
        },
        {
          "internalType": "address",
          "name": "to",
          "type": "address"
        },
        {
          "internalType": "uint256",
          "name": "deadline",
          "type": "uint256"
        }
      ],
      "name": "removeLiquidityETH",
      "outputs": [
        {
          "internalType": "uint256",
          "name": "amountToken",
          "type": "uint256"
        },
        {
          "internalType": "uint256",
          "name": "amountETH",
          "type": "uint256"
        }
      ],
      "stateMutability": "nonpayable",
      "type": "function"
    },
    {
      "inputs": [
        {
          "internalType": "address",
          "name": "token",
          "type": "address"
        },
        {
          "internalType": "uint256",
          "name": "liquidity",
          "type": "uint256"
        },
        {
          "internalType": "uint256",
          "name": "amountTokenMin",
          "type": "uint256"
        },
        {
          "internalType": "uint256",
          "name": "amountETHMin",
          "type": "uint256"
        },
        {
          "internalType": "address",
          "name": "to",
          "type": "address"
        },
        {
          "internalType": "uint256",
          "name": "deadline",
          "type": "uint256"
        }
      ],
      "name": "removeLiquidityETHSupportingFeeOnTransferTokens",
      "outputs": [
        {
          "internalType": "uint256",
          "name": "amountETH",
          "type": "uint256"
        }
      ],
      "stateMutability": "nonpayable",
      "type": "function"
    },
    {
      "inputs": [
        {
          "internalType": "address",
          "name": "token",
          "type": "address"
        },
        {
          "internalType": "uint256",
          "name": "liquidity",
          "type": "uint256"
        },
        {
          "internalType": "uint256",
          "name": "amountTokenMin",
          "type": "uint256"
        },
        {
          "internalType": "uint256",
          "name": "amountETHMin",
          "type": "uint256"
        },
        {
          "internalType": "address",
          "name": "to",
          "type": "address"
        },
        {
          "internalType": "uint256",
          "name": "deadline",
          "type": "uint256"
        },
        {
          "internalType": "bool",
          "name": "approveMax",
          "type": "bool"
        },
        {
          "internalType": "uint8",
          "name": "v",
          "type": "uint8"
        },
        {
          "internalType": "bytes32",
          "name": "r",
          "type": "bytes32"
        },
        {
          "internalType": "bytes32",
          "name": "s",
          "type": "bytes32"
        }
      ],
      "name": "removeLiquidityETHWithPermit",
      "outputs": [
        {
          "internalType": "uint256",
          "name": "amountToken",
          "type": "uint256"
        },
        {
          "internalType": "uint256",
          "name": "amountETH",
          "type": "uint256"
        }
      ],
      "stateMutability": "nonpayable",
      "type": "function"
    },
    {
      "inputs": [
        {
          "internalType": "address",
          "name": "token",
          "type": "address"
        },
        {
          "internalType": "uint256",
          "name": "liquidity",
          "type": "uint256"
        },
        {
          "internalType": "uint256",
          "name": "amountTokenMin",
          "type": "uint256"
        },
        {
          "internalType": "uint256",
          "name": "amountETHMin",
          "type": "uint256"
        },
        {
          "internalType": "address",
          "name": "to",
          "type": "address"
        },
        {
          "internalType": "uint256",
          "name": "deadline",
          "type": "uint256"
        },
        {
          "internalType": "bool",
          "name": "approveMax",
          "type": "bool"
        },
        {
          "internalType": "uint8",
          "name": "v",
          "type": "uint8"
        },
        {
          "internalType": "bytes32",
          "name": "r",
          "type": "bytes32"
        },
        {
          "internalType": "bytes32",
          "name": "s",
          "type": "bytes32"
        }
      ],
      "name": "removeLiquidityETHWithPermitSupportingFeeOnTransferTokens",
      "outputs": [
        {
          "internalType": "uint256",
          "name": "amountETH",
          "type": "uint256"
        }
      ],
      "stateMutability": "nonpayable",
      "type": "function"
    },
    {
      "inputs": [
        {
          "internalType": "address",
          "name": "tokenA",
          "type": "address"
        },
        {
          "internalType": "address",
          "name": "tokenB",
          "type": "address"
        },
        {
          "internalType": "uint256",
          "name": "liquidity",
          "type": "uint256"
        },
        {
          "internalType": "uint256",
          "name": "amountAMin",
          "type": "uint256"
        },
        {
          "internalType": "uint256",
          "name": "amountBMin",
          "type": "uint256"
        },
        {
          "internalType": "address",
          "name": "to",
          "type": "address"
        },
        {
          "internalType": "uint256",
          "name": "deadline",
          "type": "uint256"
        },
        {
          "internalType": "bool",
          "name": "approveMax",
          "type": "bool"
        },
        {
          "internalType": "uint8",
          "name": "v",
          "type": "uint8"
        },
        {
          "internalType": "bytes32",
          "name": "r",
          "type": "bytes32"
        },
        {
          "internalType": "bytes32",
          "name": "s",
          "type": "bytes32"
        }
      ],
      "name": "removeLiquidityWithPermit",
      "outputs": [
        {
          "internalType": "uint256",
          "name": "amountA",
          "type": "uint256"
        },
        {
          "internalType": "uint256",
          "name": "amountB",
          "type": "uint256"
        }
      ],
      "stateMutability": "nonpayable",
      "type": "function"
    },
    {
      "inputs": [
        {
          "internalType": "uint256",
          "name": "amountOut",
          "type": "uint256"
        },
        {
          "internalType": "address[]",
          "name": "path",
          "type": "address[]"
        },
        {
          "internalType": "address",
          "name": "to",
          "type": "address"
        },
        {
          "internalType": "uint256",
          "name": "deadline",
          "type": "uint256"
        }
      ],
      "name": "swapETHForExactTokens",
      "outputs": [
        {
          "internalType": "uint256[]",
          "name": "amounts",
          "type": "uint256[]"
        }
      ],
      "stateMutability": "payable",
      "type": "function"
    },
    {
      "inputs": [
        {
          "internalType": "uint256",
          "name": "amountOutMin",
          "type": "uint256"
        },
        {
          "internalType": "address[]",
          "name": "path",
          "type": "address[]"
        },
        {
          "internalType": "address",
          "name": "to",
          "type": "address"
        },
        {
          "internalType": "uint256",
          "name": "deadline",
          "type": "uint256"
        }
      ],
      "name": "swapExactETHForTokens",
      "outputs": [
        {
          "internalType": "uint256[]",
          "name": "amounts",
          "type": "uint256[]"
        }
      ],
      "stateMutability": "payable",
      "type": "function"
    },
    {
      "inputs": [
        {
          "internalType": "uint256",
          "name": "amountIn",
          "type": "uint256"
        },
        {
          "internalType": "uint256",
          "name": "amountOutMin",
          "type": "uint256"
        },
        {
          "internalType": "address[]",
          "name": "path",
          "type": "address[]"
        },
        {
          "internalType": "address",
          "name": "to",
          "type": "address"
        },
        {
          "internalType": "uint256",
          "name": "deadline",
          "type": "uint256"
        }
      ],
      "name": "swapExactTokensForETH",
      "outputs": [
        {
          "internalType": "uint256[]",
          "name": "amounts",
          "type": "uint256[]"
        }
      ],
      "stateMutability": "nonpayable",
      "type": "function"
    },
    {
      "inputs": [
        {
          "internalType": "uint256",
          "name": "amountIn",
          "type": "uint256"
        },
        {
          "internalType": "uint256",
          "name": "amountOutMin",
          "type": "uint256"
        },
        {
          "internalType": "address[]",
          "name": "path",
          "type": "address[]"
        },
        {
          "internalType": "address",
          "name": "to",
          "type": "address"
        },
        {
          "internalType": "uint256",
          "name": "deadline",
          "type": "uint256"
        }
      ],
      "name": "swapExactTokensForTokens",
      "outputs": [
        {
          "internalType": "uint256[]",
          "name": "amounts",
          "type": "uint256[]"
        }
      ],
      "stateMutability": "nonpayable",
      "type": "function"
    },
    {
      "inputs": [
        {
          "internalType": "uint256",
          "name": "amountOut",
          "type": "uint256"
        },
        {
          "internalType": "uint256",
          "name": "amountInMax",
          "type": "uint256"
        },
        {
          "internalType": "address[]",
          "name": "path",
          "type": "address[]"
        },
        {
          "internalType": "address",
          "name": "to",
          "type": "address"
        },
        {
          "internalType": "uint256",
          "name": "deadline",
          "type": "uint256"
        }
      ],
      "name": "swapTokensForExactETH",
      "outputs": [
        {
          "internalType": "uint256[]",
          "name": "amounts",
          "type": "uint256[]"
        }
      ],
      "stateMutability": "nonpayable",
      "type": "function"
    },
    {
      "inputs": [
        {
          "internalType": "uint256",
          "name": "amountOut",
          "type": "uint256"
        },
        {
          "internalType": "uint256",
          "name": "amountInMax",
          "type": "uint256"
        },
        {
          "internalType": "address[]",
          "name": "path",
          "type": "address[]"
        },
        {
          "internalType": "address",
          "name": "to",
          "type": "address"
        },
        {
          "internalType": "uint256",
          "name": "deadline",
          "type": "uint256"
        }
      ],
      "name": "swapTokensForExactTokens",
      "outputs": [
        {
          "internalType": "uint256[]",
          "name": "amounts",
          "type": "uint256[]"
        }
      ],
      "stateMutability": "nonpayable",
      "type": "function"
    },
    {
      "stateMutability": "payable",
      "type": "receive"
    }
  ],
  "bytecode": "0x60c060405234801561001057600080fd5b50604051613abd380380613abd8339818101604052604081101561003357600080fd5b5080516020909101516001600160601b0319606092831b8116608052911b1660a05260805160601c60a05160601c61396d6101506000398061017e5280610b705280610bab5280610caf5280610edf528061128352806113fb5280611534528061168c5280611714528061197a5280611a025280611ab65280611e2352806120a752806120fd528061213152806121a552806123405280612495528061251d525080610d4f5280610e265280610fa55280610fde5280611126528061132352806113d952806115d9528061174652806118ca5280611b975280611da85280611dd15280611e015280611f7b52806120db52806123e5528061254f5280612dec5280612e2f528061331e52806133d7528061348a525061396d6000f3fe60806040526004361061016e5760003560e01c80638803dbee116100cb578063c45a01551161007f578063e8e3370011610059578063e8e33700146109ca578063f305d71914610a4a578063fb3bdb4114610a90576101a7565b8063c45a01551461088b578063d06ca61f146108a0578063ded9382a14610957576101a7565b8063ad615dec116100b0578063ad615dec146107a5578063af2979eb146107db578063baa2abde1461082e576101a7565b80638803dbee146106dc578063ad5c464814610774576101a7565b806338ed1739116101225780635b0d5984116101075780635b0d5984146105ad5780637ff36ab51461062057806385f8c259146106a6576101a7565b806338ed17391461047d5780634a25d94a14610515576101a7565b806318cbafe51161015357806318cbafe5146102605780631f00ca74146103485780632195995c146103ff576101a7565b806302751cec146101ac578063054d50d414610218576101a7565b366101a757336001600160a01b037f000000000000000000000000000000000000000000000000000000000000000016146101a557fe5b005b600080fd5b3480156101b857600080fd5b506101ff600480360360c08110156101cf57600080fd5b506001600160a01b0381358116916020810135916040820135916060810135916080820135169060a00135610b16565b6040805192835260208301919091528051918290030190f35b34801561022457600080fd5b5061024e6004803603606081101561023b57600080fd5b5080359060208101359060400135610c3d565b60408051918252519081900360200190f35b34801561026c57600080fd5b506102f8600480360360a081101561028357600080fd5b8135916020810135918101906060810160408201356401000000008111156102aa57600080fd5b8201836020820111156102bc57600080fd5b803590602001918460208302840111640100000000831117156102de57600080fd5b91935091506001600160a01b038135169060200135610c52565b60408051602080825283518183015283519192839290830191858101910280838360005b8381101561033457818101518382015260200161031c565b505050509050019250505060405180910390f35b34801561035457600080fd5b506102f86004803603604081101561036b57600080fd5b8135919081019060408101602082013564010000000081111561038d57600080fd5b82018360208201111561039f57600080fd5b803590602001918460208302840111640100000000831117156103c157600080fd5b919080806020026020016040519081016040528093929190818152602001838360200280828437600092019190915250929550610f9e945050505050565b34801561040b57600080fd5b506101ff600480360361016081101561042357600080fd5b506001600160a01b038135811691602081013582169160408201359160608101359160808201359160a08101359091169060c08101359060e081013515159060ff6101008201351690610120810135906101400135610fd4565b34801561048957600080fd5b506102f8600480360360a08110156104a057600080fd5b8135916020810135918101906060810160408201356401000000008111156104c757600080fd5b8201836020820111156104d957600080fd5b803590602001918460208302840111640100000000831117156104fb57600080fd5b91935091506001600160a01b0381351690602001356110ce565b34801561052157600080fd5b506102f8600480360360a081101561053857600080fd5b81359160208101359181019060608101604082013564010000000081111561055f57600080fd5b82018360208201111561057157600080fd5b8035906020019184602083028401116401000000008311171561059357600080fd5b91935091506001600160a01b038135169060200135611226565b3480156105b957600080fd5b5061024e60048036036101408110156105d157600080fd5b506001600160a01b0381358116916020810135916040820135916060810135916080820135169060a08101359060c081013515159060ff60e082013516906101008101359061012001356113d1565b6102f86004803603608081101561063657600080fd5b8135919081019060408101602082013564010000000081111561065857600080fd5b82018360208201111561066a57600080fd5b8035906020019184602083028401116401000000008311171561068c57600080fd5b91935091506001600160a01b0381351690602001356114df565b3480156106b257600080fd5b5061024e600480360360608110156106c957600080fd5b5080359060208101359060400135611865565b3480156106e857600080fd5b506102f8600480360360a08110156106ff57600080fd5b81359160208101359181019060608101604082013564010000000081111561072657600080fd5b82018360208201111561073857600080fd5b8035906020019184602083028401116401000000008311171561075a57600080fd5b91935091506001600160a01b038135169060200135611872565b34801561078057600080fd5b50610789611978565b604080516001600160a01b039092168252519081900360200190f35b3480156107b157600080fd5b5061024e600480360360608110156107c857600080fd5b508035906020810135906040013561199c565b3480156107e757600080fd5b5061024e600480360360c08110156107fe57600080fd5b506001600160a01b0381358116916020810135916040820135916060810135916080820135169060a001356119a9565b34801561083a57600080fd5b506101ff600480360360e081101561085157600080fd5b506001600160a01b038135811691602081013582169160408201359160608101359160808201359160a08101359091169060c00135611b3c565b34801561089757600080fd5b50610789611da6565b3480156108ac57600080fd5b506102f8600480360360408110156108c357600080fd5b813591908101906040810160208201356401000000008111156108e557600080fd5b8201836020820111156108f757600080fd5b8035906020019184602083028401116401000000008311171561091957600080fd5b919080806020026020016040519081016040528093929190818152602001838360200280828437600092019190915250929550611dca945050505050565b34801561096357600080fd5b506101ff600480360361014081101561097b57600080fd5b506001600160a01b0381358116916020810135916040820135916060810135916080820135169060a08101359060c081013515159060ff60e08201351690610100810135906101200135611df7565b3480156109d657600080fd5b50610a2c60048036036101008110156109ee57600080fd5b506001600160a01b038135811691602081013582169160408201359160608101359160808201359160a08101359160c0820135169060e00135611f0b565b60408051938452602084019290925282820152519081900360600190f35b610a2c600480360360c0811015610a6057600080fd5b506001600160a01b0381358116916020810135916040820135916060810135916080820135169060a0013561204b565b6102f860048036036080811015610aa657600080fd5b81359190810190604081016020820135640100000000811115610ac857600080fd5b820183602082011115610ada57600080fd5b80359060200191846020830284011164010000000083111715610afc57600080fd5b91935091506001600160a01b0381351690602001356122eb565b6000808242811015610b6a576040805162461bcd60e51b8152602060048201526018602482015277155b9a5cddd85c158c949bdd5d195c8e881156141254915160421b604482015290519081900360640190fd5b610b99897f00000000000000000000000000000000000000000000000000000000000000008a8a8a308a611b3c565b9093509150610ba9898685612683565b7f00000000000000000000000000000000000000000000000000000000000000006001600160a01b0316632e1a7d4d836040518263ffffffff1660e01b815260040180828152602001915050600060405180830381600087803b158015610c0f57600080fd5b505af1158015610c23573d6000803e3d6000fd5b50505050610c31858361281b565b50965096945050505050565b6000610c4a848484612913565b949350505050565b60608142811015610ca5576040805162461bcd60e51b8152602060048201526018602482015277155b9a5cddd85c158c949bdd5d195c8e881156141254915160421b604482015290519081900360640190fd5b6001600160a01b037f00000000000000000000000000000000000000000000000000000000000000001686866000198101818110610cdf57fe5b905060200201356001600160a01b03166001600160a01b031614610d4a576040805162461bcd60e51b815260206004820152601d60248201527f556e69737761705632526f757465723a20494e56414c49445f50415448000000604482015290519081900360640190fd5b610da87f0000000000000000000000000000000000000000000000000000000000000000898888808060200260200160405190810160405280939291908181526020018383602002808284376000920191909152506129eb92505050565b91508682600184510381518110610dbb57fe5b60200260200101511015610e005760405162461bcd60e51b815260040180806020018281038252602b8152602001806138be602b913960400191505060405180910390fd5b610e9e86866000818110610e1057fe5b905060200201356001600160a01b031633610e847f00000000000000000000000000000000000000000000000000000000000000008a8a6000818110610e5257fe5b905060200201356001600160a01b03168b8b6001818110610e6f57fe5b905060200201356001600160a01b0316612b37565b85600081518110610e9157fe5b6020026020010151612bcb565b610edd82878780806020026020016040519081016040528093929190818152602001838360200280828437600092019190915250309250612d3d915050565b7f00000000000000000000000000000000000000000000000000000000000000006001600160a01b0316632e1a7d4d83600185510381518110610f1c57fe5b60200260200101516040518263ffffffff1660e01b815260040180828152602001915050600060405180830381600087803b158015610f5a57600080fd5b505af1158015610f6e573d6000803e3d6000fd5b50505050610f938483600185510381518110610f8657fe5b602002602001015161281b565b509695505050505050565b6060610fcb7f00000000000000000000000000000000000000000000000000000000000000008484612f7a565b90505b92915050565b60008060006110047f00000000000000000000000000000000000000000000000000000000000000008f8f612b37565b9050600087611013578c611017565b6000195b6040805163d505accf60e01b815233600482015230602482015260448101839052606481018c905260ff8a16608482015260a4810189905260c4810188905290519192506001600160a01b0384169163d505accf9160e48082019260009290919082900301818387803b15801561108d57600080fd5b505af11580156110a1573d6000803e3d6000fd5b505050506110b48f8f8f8f8f8f8f611b3c565b809450819550505050509b509b9950505050505050505050565b60608142811015611121576040805162461bcd60e51b8152602060048201526018602482015277155b9a5cddd85c158c949bdd5d195c8e881156141254915160421b604482015290519081900360640190fd5b61117f7f0000000000000000000000000000000000000000000000000000000000000000898888808060200260200160405190810160405280939291908181526020018383602002808284376000920191909152506129eb92505050565b9150868260018451038151811061119257fe5b602002602001015110156111d75760405162461bcd60e51b815260040180806020018281038252602b8152602001806138be602b913960400191505060405180910390fd5b6111e786866000818110610e1057fe5b610f9382878780806020026020016040519081016040528093929190818152602001838360200280828437600092019190915250899250612d3d915050565b60608142811015611279576040805162461bcd60e51b8152602060048201526018602482015277155b9a5cddd85c158c949bdd5d195c8e881156141254915160421b604482015290519081900360640190fd5b6001600160a01b037f000000000000000000000000000000000000000000000000000000000000000016868660001981018181106112b357fe5b905060200201356001600160a01b03166001600160a01b03161461131e576040805162461bcd60e51b815260206004820152601d60248201527f556e69737761705632526f757465723a20494e56414c49445f50415448000000604482015290519081900360640190fd5b61137c7f000000000000000000000000000000000000000000000000000000000000000089888880806020026020016040519081016040528093929190818152602001838360200280828437600092019190915250612f7a92505050565b9150868260008151811061138c57fe5b60200260200101511115610e005760405162461bcd60e51b815260040180806020018281038252602781526020018061384e6027913960400191505060405180910390fd5b60008061141f7f00000000000000000000000000000000000000000000000000000000000000008d7f0000000000000000000000000000000000000000000000000000000000000000612b37565b905060008661142e578b611432565b6000195b6040805163d505accf60e01b815233600482015230602482015260448101839052606481018b905260ff8916608482015260a4810188905260c4810187905290519192506001600160a01b0384169163d505accf9160e48082019260009290919082900301818387803b1580156114a857600080fd5b505af11580156114bc573d6000803e3d6000fd5b505050506114ce8d8d8d8d8d8d6119a9565b9d9c50505050505050505050505050565b60608142811015611532576040805162461bcd60e51b8152602060048201526018602482015277155b9a5cddd85c158c949bdd5d195c8e881156141254915160421b604482015290519081900360640190fd5b7f00000000000000000000000000000000000000000000000000000000000000006001600160a01b03168686600081811061156957fe5b905060200201356001600160a01b03166001600160a01b0316146115d4576040805162461bcd60e51b815260206004820152601d60248201527f556e69737761705632526f757465723a20494e56414c49445f50415448000000604482015290519081900360640190fd5b6116327f0000000000000000000000000000000000000000000000000000000000000000348888808060200260200160405190810160405280939291908181526020018383602002808284376000920191909152506129eb92505050565b9150868260018451038151811061164557fe5b6020026020010151101561168a5760405162461bcd60e51b815260040180806020018281038252602b8152602001806138be602b913960400191505060405180910390fd5b7f00000000000000000000000000000000000000000000000000000000000000006001600160a01b031663d0e30db0836000815181106116c657fe5b60200260200101516040518263ffffffff1660e01b81526004016000604051808303818588803b1580156116f957600080fd5b505af115801561170d573d6000803e3d6000fd5b50505050507f00000000000000000000000000000000000000000000000000000000000000006001600160a01b031663a9059cbb61178f7f00000000000000000000000000000000000000000000000000000000000000008989600081811061177257fe5b905060200201356001600160a01b03168a8a6001818110610e6f57fe5b8460008151811061179c57fe5b60200260200101516040518363ffffffff1660e01b815260040180836001600160a01b0316815260200182815260200192505050602060405180830381600087803b1580156117ea57600080fd5b505af11580156117fe573d6000803e3d6000fd5b505050506040513d602081101561181457600080fd5b505161181c57fe5b61185b82878780806020026020016040519081016040528093929190818152602001838360200280828437600092019190915250899250612d3d915050565b5095945050505050565b6000610c4a8484846130b2565b606081428110156118c5576040805162461bcd60e51b8152602060048201526018602482015277155b9a5cddd85c158c949bdd5d195c8e881156141254915160421b604482015290519081900360640190fd5b6119237f000000000000000000000000000000000000000000000000000000000000000089888880806020026020016040519081016040528093929190818152602001838360200280828437600092019190915250612f7a92505050565b9150868260008151811061193357fe5b602002602001015111156111d75760405162461bcd60e51b815260040180806020018281038252602781526020018061384e6027913960400191505060405180910390fd5b7f000000000000000000000000000000000000000000000000000000000000000081565b6000610c4a84848461318a565b600081428110156119fc576040805162461bcd60e51b8152602060048201526018602482015277155b9a5cddd85c158c949bdd5d195c8e881156141254915160421b604482015290519081900360640190fd5b611a2b887f00000000000000000000000000000000000000000000000000000000000000008989893089611b3c565b905080925050611ab488858a6001600160a01b03166370a08231306040518263ffffffff1660e01b815260040180826001600160a01b0316815260200191505060206040518083038186803b158015611a8357600080fd5b505afa158015611a97573d6000803e3d6000fd5b505050506040513d6020811015611aad57600080fd5b5051612683565b7f00000000000000000000000000000000000000000000000000000000000000006001600160a01b0316632e1a7d4d836040518263ffffffff1660e01b815260040180828152602001915050600060405180830381600087803b158015611b1a57600080fd5b505af1158015611b2e573d6000803e3d6000fd5b50505050610f93848361281b565b6000808242811015611b90576040805162461bcd60e51b8152602060048201526018602482015277155b9a5cddd85c158c949bdd5d195c8e881156141254915160421b604482015290519081900360640190fd5b6000611bbd7f00000000000000000000000000000000000000000000000000000000000000008c8c612b37565b604080516323b872dd60e01b81523360048201526001600160a01b03831660248201819052604482018d9052915192935090916323b872dd916064808201926020929091908290030181600087803b158015611c1857600080fd5b505af1158015611c2c573d6000803e3d6000fd5b505050506040513d6020811015611c4257600080fd5b5050604080517f89afcb440000000000000000000000000000000000000000000000000000000081526001600160a01b03888116600483015282516000938493928616926389afcb44926024808301939282900301818787803b158015611ca857600080fd5b505af1158015611cbc573d6000803e3d6000fd5b505050506040513d6040811015611cd257600080fd5b50805160209091015190925090506000611cec8e8e613230565b509050806001600160a01b03168e6001600160a01b031614611d0f578183611d12565b82825b90975095508a871015611d565760405162461bcd60e51b81526004018080602001828103825260268152602001806138756026913960400191505060405180910390fd5b89861015611d955760405162461bcd60e51b81526004018080602001828103825260268152602001806137db6026913960400191505060405180910390fd5b505050505097509795505050505050565b7f000000000000000000000000000000000000000000000000000000000000000081565b6060610fcb7f000000000000000000000000000000000000000000000000000000000000000084846129eb565b6000806000611e477f00000000000000000000000000000000000000000000000000000000000000008e7f0000000000000000000000000000000000000000000000000000000000000000612b37565b9050600087611e56578c611e5a565b6000195b6040805163d505accf60e01b815233600482015230602482015260448101839052606481018c905260ff8a16608482015260a4810189905260c4810188905290519192506001600160a01b0384169163d505accf9160e48082019260009290919082900301818387803b158015611ed057600080fd5b505af1158015611ee4573d6000803e3d6000fd5b50505050611ef68e8e8e8e8e8e610b16565b909f909e509c50505050505050505050505050565b60008060008342811015611f61576040805162461bcd60e51b8152602060048201526018602482015277155b9a5cddd85c158c949bdd5d195c8e881156141254915160421b604482015290519081900360640190fd5b611f6f8c8c8c8c8c8c61330e565b90945092506000611fa17f00000000000000000000000000000000000000000000000000000000000000008e8e612b37565b9050611faf8d338388612bcb565b611fbb8c338387612bcb565b806001600160a01b0316636a627842886040518263ffffffff1660e01b815260040180826001600160a01b03168152602001915050602060405180830381600087803b15801561200a57600080fd5b505af115801561201e573d6000803e3d6000fd5b505050506040513d602081101561203457600080fd5b5051949d939c50939a509198505050505050505050565b600080600083428110156120a1576040805162461bcd60e51b8152602060048201526018602482015277155b9a5cddd85c158c949bdd5d195c8e881156141254915160421b604482015290519081900360640190fd5b6120cf8a7f00000000000000000000000000000000000000000000000000000000000000008b348c8c61330e565b909450925060006121217f00000000000000000000000000000000000000000000000000000000000000008c7f0000000000000000000000000000000000000000000000000000000000000000612b37565b905061212f8b338388612bcb565b7f00000000000000000000000000000000000000000000000000000000000000006001600160a01b031663d0e30db0856040518263ffffffff1660e01b81526004016000604051808303818588803b15801561218a57600080fd5b505af115801561219e573d6000803e3d6000fd5b50505050507f00000000000000000000000000000000000000000000000000000000000000006001600160a01b031663a9059cbb82866040518363ffffffff1660e01b815260040180836001600160a01b0316815260200182815260200192505050602060405180830381600087803b15801561221a57600080fd5b505af115801561222e573d6000803e3d6000fd5b505050506040513d602081101561224457600080fd5b505161224c57fe5b806001600160a01b0316636a627842886040518263ffffffff1660e01b815260040180826001600160a01b03168152602001915050602060405180830381600087803b15801561229b57600080fd5b505af11580156122af573d6000803e3d6000fd5b505050506040513d60208110156122c557600080fd5b50519250348410156122dd576122dd3385340361281b565b505096509650969350505050565b6060814281101561233e576040805162461bcd60e51b8152602060048201526018602482015277155b9a5cddd85c158c949bdd5d195c8e881156141254915160421b604482015290519081900360640190fd5b7f00000000000000000000000000000000000000000000000000000000000000006001600160a01b03168686600081811061237557fe5b905060200201356001600160a01b03166001600160a01b0316146123e0576040805162461bcd60e51b815260206004820152601d60248201527f556e69737761705632526f757465723a20494e56414c49445f50415448000000604482015290519081900360640190fd5b61243e7f000000000000000000000000000000000000000000000000000000000000000088888880806020026020016040519081016040528093929190818152602001838360200280828437600092019190915250612f7a92505050565b9150348260008151811061244e57fe5b602002602001015111156124935760405162461bcd60e51b815260040180806020018281038252602781526020018061384e6027913960400191505060405180910390fd5b7f00000000000000000000000000000000000000000000000000000000000000006001600160a01b031663d0e30db0836000815181106124cf57fe5b60200260200101516040518263ffffffff1660e01b81526004016000604051808303818588803b15801561250257600080fd5b505af1158015612516573d6000803e3d6000fd5b50505050507f00000000000000000000000000000000000000000000000000000000000000006001600160a01b031663a9059cbb61257b7f00000000000000000000000000000000000000000000000000000000000000008989600081811061177257fe5b8460008151811061258857fe5b60200260200101516040518363ffffffff1660e01b815260040180836001600160a01b0316815260200182815260200192505050602060405180830381600087803b1580156125d657600080fd5b505af11580156125ea573d6000803e3d6000fd5b505050506040513d602081101561260057600080fd5b505161260857fe5b61264782878780806020026020016040519081016040528093929190818152602001838360200280828437600092019190915250899250612d3d915050565b8160008151811061265457fe5b602002602001015134111561185b5761185b338360008151811061267457fe5b6020026020010151340361281b565b604080516001600160a01b038481166024830152604480830185905283518084039091018152606490920183526020820180517bffffffffffffffffffffffffffffffffffffffffffffffffffffffff167fa9059cbb00000000000000000000000000000000000000000000000000000000178152925182516000946060949389169392918291908083835b6020831061272e5780518252601f19909201916020918201910161270f565b6001836020036101000a0380198251168184511680821785525050505050509050019150506000604051808303816000865af19150503d8060008114612790576040519150601f19603f3d011682016040523d82523d6000602084013e612795565b606091505b50915091508180156127c35750805115806127c357508080602001905160208110156127c057600080fd5b50515b612814576040805162461bcd60e51b815260206004820152601f60248201527f5472616e7366657248656c7065723a205452414e534645525f4641494c454400604482015290519081900360640190fd5b5050505050565b604080516000808252602082019092526001600160a01b0384169083906040518082805190602001908083835b602083106128675780518252601f199092019160209182019101612848565b6001836020036101000a03801982511681845116808217855250505050505090500191505060006040518083038185875af1925050503d80600081146128c9576040519150601f19603f3d011682016040523d82523d6000602084013e6128ce565b606091505b505090508061290e5760405162461bcd60e51b815260040180806020018281038252602381526020018061389b6023913960400191505060405180910390fd5b505050565b60008084116129535760405162461bcd60e51b815260040180806020018281038252602b81526020018061390d602b913960400191505060405180910390fd5b6000831180156129635750600082115b61299e5760405162461bcd60e51b81526004018080602001828103825260288152602001806138016028913960400191505060405180910390fd5b60006129ac856103e561359f565b905060006129ba828561359f565b905060006129d4836129ce886103e861359f565b9061360b565b90508082816129df57fe5b04979650505050505050565b6060600282511015612a44576040805162461bcd60e51b815260206004820152601e60248201527f556e697377617056324c6962726172793a20494e56414c49445f504154480000604482015290519081900360640190fd5b815167ffffffffffffffff81118015612a5c57600080fd5b50604051908082528060200260200182016040528015612a86578160200160208202803683370190505b5090508281600081518110612a9757fe5b60200260200101818152505060005b6001835103811015612b2f57600080612ae987868581518110612ac557fe5b6020026020010151878660010181518110612adc57fe5b6020026020010151613663565b91509150612b0b848481518110612afc57fe5b60200260200101518383612913565b848460010181518110612b1a57fe5b60209081029190910101525050600101612aa6565b509392505050565b6000836001600160a01b031663e6a4390584846040518363ffffffff1660e01b815260040180836001600160a01b03168152602001826001600160a01b031681526020019250505060206040518083038186803b158015612b9757600080fd5b505afa158015612bab573d6000803e3d6000fd5b505050506040513d6020811015612bc157600080fd5b5051949350505050565b604080516001600160a01b0385811660248301528481166044830152606480830185905283518084039091018152608490920183526020820180517bffffffffffffffffffffffffffffffffffffffffffffffffffffffff166323b872dd60e01b17815292518251600094606094938a169392918291908083835b60208310612c655780518252601f199092019160209182019101612c46565b6001836020036101000a0380198251168184511680821785525050505050509050019150506000604051808303816000865af19150503d8060008114612cc7576040519150601f19603f3d011682016040523d82523d6000602084013e612ccc565b606091505b5091509150818015612cfa575080511580612cfa5750808060200190516020811015612cf757600080fd5b50515b612d355760405162461bcd60e51b81526004018080602001828103825260248152602001806138e96024913960400191505060405180910390fd5b505050505050565b60005b6001835103811015612f7457600080848381518110612d5b57fe5b6020026020010151858460010181518110612d7257fe5b6020026020010151915091506000612d8a8383613230565b5090506000878560010181518110612d9e57fe5b60200260200101519050600080836001600160a01b0316866001600160a01b031614612dcc57826000612dd0565b6000835b91509150600060028a51038810612de75788612e28565b612e287f0000000000000000000000000000000000000000000000000000000000000000878c8b60020181518110612e1b57fe5b6020026020010151612b37565b9050612e557f00000000000000000000000000000000000000000000000000000000000000008888612b37565b6001600160a01b031663022c0d9f84848460006040519080825280601f01601f191660200182016040528015612e92576020820181803683370190505b506040518563ffffffff1660e01b815260040180858152602001848152602001836001600160a01b0316815260200180602001828103825283818151815260200191508051906020019080838360005b83811015612efa578181015183820152602001612ee2565b50505050905090810190601f168015612f275780820380516001836020036101000a031916815260200191505b5095505050505050600060405180830381600087803b158015612f4957600080fd5b505af1158015612f5d573d6000803e3d6000fd5b505060019099019850612d40975050505050505050565b50505050565b6060600282511015612fd3576040805162461bcd60e51b815260206004820152601e60248201527f556e697377617056324c6962726172793a20494e56414c49445f504154480000604482015290519081900360640190fd5b815167ffffffffffffffff81118015612feb57600080fd5b50604051908082528060200260200182016040528015613015578160200160208202803683370190505b509050828160018351038151811061302957fe5b60209081029190910101528151600019015b8015612b2f5760008061306b8786600186038151811061305757fe5b6020026020010151878681518110612adc57fe5b9150915061308d84848151811061307e57fe5b602002602001015183836130b2565b84600185038151811061309c57fe5b602090810291909101015250506000190161303b565b60008084116130f25760405162461bcd60e51b815260040180806020018281038252602c81526020018061378a602c913960400191505060405180910390fd5b6000831180156131025750600082115b61313d5760405162461bcd60e51b81526004018080602001828103825260288152602001806138016028913960400191505060405180910390fd5b60006131556103e861314f868861359f565b9061359f565b905060006131696103e561314f8689613731565b9050613180600182848161317957fe5b049061360b565b9695505050505050565b60008084116131ca5760405162461bcd60e51b81526004018080602001828103825260258152602001806138296025913960400191505060405180910390fd5b6000831180156131da5750600082115b6132155760405162461bcd60e51b81526004018080602001828103825260288152602001806138016028913960400191505060405180910390fd5b82613220858461359f565b8161322757fe5b04949350505050565b600080826001600160a01b0316846001600160a01b031614156132845760405162461bcd60e51b81526004018080602001828103825260258152602001806137b66025913960400191505060405180910390fd5b826001600160a01b0316846001600160a01b0316106132a45782846132a7565b83835b90925090506001600160a01b038216613307576040805162461bcd60e51b815260206004820152601e60248201527f556e697377617056324c6962726172793a205a45524f5f414444524553530000604482015290519081900360640190fd5b9250929050565b60008060006001600160a01b03167f00000000000000000000000000000000000000000000000000000000000000006001600160a01b031663e6a439058a8a6040518363ffffffff1660e01b815260040180836001600160a01b03168152602001826001600160a01b031681526020019250505060206040518083038186803b15801561339a57600080fd5b505afa1580156133ae573d6000803e3d6000fd5b505050506040513d60208110156133c457600080fd5b50516001600160a01b03161415613482577f00000000000000000000000000000000000000000000000000000000000000006001600160a01b031663c9c6539689896040518363ffffffff1660e01b815260040180836001600160a01b03168152602001826001600160a01b0316815260200192505050602060405180830381600087803b15801561345557600080fd5b505af1158015613469573d6000803e3d6000fd5b505050506040513d602081101561347f57600080fd5b50505b6000806134b07f00000000000000000000000000000000000000000000000000000000000000008b8b613663565b915091508160001480156134c2575080155b156134d257879350869250613592565b60006134df89848461318a565b905087811161353257858110156135275760405162461bcd60e51b81526004018080602001828103825260268152602001806137db6026913960400191505060405180910390fd5b889450925082613590565b600061353f89848661318a565b90508981111561354b57fe5b8781101561358a5760405162461bcd60e51b81526004018080602001828103825260268152602001806138756026913960400191505060405180910390fd5b94508793505b505b5050965096945050505050565b60008115806135ba575050808202828282816135b757fe5b04145b610fce576040805162461bcd60e51b815260206004820152601460248201527f64732d6d6174682d6d756c2d6f766572666c6f77000000000000000000000000604482015290519081900360640190fd5b80820182811015610fce576040805162461bcd60e51b815260206004820152601460248201527f64732d6d6174682d6164642d6f766572666c6f77000000000000000000000000604482015290519081900360640190fd5b60008060006136728585613230565b509050600080613683888888612b37565b6001600160a01b0316630902f1ac6040518163ffffffff1660e01b815260040160606040518083038186803b1580156136bb57600080fd5b505afa1580156136cf573d6000803e3d6000fd5b505050506040513d60608110156136e557600080fd5b5080516020909101516dffffffffffffffffffffffffffff91821693501690506001600160a01b038781169084161461371f578082613722565b81815b90999098509650505050505050565b80820382811115610fce576040805162461bcd60e51b815260206004820152601560248201527f64732d6d6174682d7375622d756e646572666c6f770000000000000000000000604482015290519081900360640190fdfe556e697377617056324c6962726172793a20494e53554646494349454e545f4f55545055545f414d4f554e54556e697377617056324c6962726172793a204944454e544943414c5f414444524553534553556e69737761705632526f757465723a20494e53554646494349454e545f425f414d4f554e54556e697377617056324c6962726172793a20494e53554646494349454e545f4c4951554944495459556e697377617056324c6962726172793a20494e53554646494349454e545f414d4f554e54556e69737761705632526f757465723a204558434553534956455f494e5055545f414d4f554e54556e69737761705632526f757465723a20494e53554646494349454e545f415f414d4f554e545472616e7366657248656c7065723a204554485f5452414e534645525f4641494c4544556e69737761705632526f757465723a20494e53554646494349454e545f4f55545055545f414d4f554e545472616e7366657248656c7065723a205452414e534645525f46524f4d5f4641494c4544556e697377617056324c6962726172793a20494e53554646494349454e545f494e5055545f414d4f554e54a264697066735822122055f406ee66e8017f04e9acfe22b952b2ef268177d65cc6f2a3a9932c74c5211d64736f6c634300060c0033",
  "linkReferences": {},
  "deployedLinkReferences": {}
}