{
  "_format": "hh-sol-artifact-1",
  "contractName": "ReFiComptroller",
  "sourceName": "contracts/lending/contracts/ReFi/ReFiComptroller.sol",
  "abi": [
    {
      "constant": true,
      "inputs": [],
      "name": "isComptroller",
      "outputs": [
        {
          "name": "",
          "type": "bool"
        }
      ],
      "payable": false,
      "stateMutability": "view",
      "type": "function"
    },
    {
      "constant": false,
      "inputs": [
        {
          "name": "cToken",
          "type": "address"
        },
        {
          "name": "payer",
          "type": "address"
        },
        {
          "name": "borrower",
          "type": "address"
        },
        {
          "name": "repayAmount",
          "type": "uint256"
        },
        {
          "name": "borrowerIndex",
          "type": "uint256"
        }
      ],
      "name": "repayBorrowVerify",
      "outputs": [],
      "payable": false,
      "stateMutability": "nonpayable",
      "type": "function"
    },
    {
      "constant": false,
      "inputs": [
        {
          "name": "cToken",
          "type": "address"
        },
        {
          "name": "payer",
          "type": "address"
        },
        {
          "name": "borrower",
          "type": "address"
        },
        {
          "name": "repayAmount",
          "type": "uint256"
        }
      ],
      "name": "repayBorrowAllowed",
      "outputs": [
        {
          "name": "",
          "type": "uint256"
        }
      ],
      "payable": false,
      "stateMutability": "nonpayable",
      "type": "function"
    },
    {
      "constant": true,
      "inputs": [],
      "name": "pendingAdmin",
      "outputs": [
        {
          "name": "",
          "type": "address"
        }
      ],
      "payable": false,
      "stateMutability": "view",
      "type": "function"
    },
    {
      "constant": false,
      "inputs": [
        {
          "name": "newCloseFactorMantissa",
          "type": "uint256"
        }
      ],
      "name": "_setCloseFactor",
      "outputs": [
        {
          "name": "",
          "type": "uint256"
        }
      ],
      "payable": false,
      "stateMutability": "nonpayable",
      "type": "function"
    },
    {
      "constant": false,
      "inputs": [
        {
          "name": "unitroller",
          "type": "address"
        },
        {
          "name": "_oracle",
          "type": "address"
        },
        {
          "name": "_closeFactorMantissa",
          "type": "uint256"
        },
        {
          "name": "_maxAssets",
          "type": "uint256"
        },
        {
          "name": "reinitializing",
          "type": "bool"
        }
      ],
      "name": "_become",
      "outputs": [],
      "payable": false,
      "stateMutability": "nonpayable",
      "type": "function"
    },
    {
      "constant": false,
      "inputs": [
        {
          "name": "cToken",
          "type": "address"
        },
        {
          "name": "minter",
          "type": "address"
        },
        {
          "name": "mintAmount",
          "type": "uint256"
        },
        {
          "name": "mintTokens",
          "type": "uint256"
        }
      ],
      "name": "mintVerify",
      "outputs": [],
      "payable": false,
      "stateMutability": "nonpayable",
      "type": "function"
    },
    {
      "constant": false,
      "inputs": [
        {
          "name": "cTokenBorrowed",
          "type": "address"
        },
        {
          "name": "cTokenCollateral",
          "type": "address"
        },
        {
          "name": "liquidator",
          "type": "address"
        },
        {
          "name": "borrower",
          "type": "address"
        },
        {
          "name": "repayAmount",
          "type": "uint256"
        },
        {
          "name": "seizeTokens",
          "type": "uint256"
        }
      ],
      "name": "liquidateBorrowVerify",
      "outputs": [],
      "payable": false,
      "stateMutability": "nonpayable",
      "type": "function"
    },
    {
      "constant": true,
      "inputs": [],
      "name": "liquidationIncentiveMantissa",
      "outputs": [
        {
          "name": "",
          "type": "uint256"
        }
      ],
      "payable": false,
      "stateMutability": "view",
      "type": "function"
    },
    {
      "constant": false,
      "inputs": [
        {
          "name": "cToken",
          "type": "address"
        },
        {
          "name": "minter",
          "type": "address"
        },
        {
          "name": "mintAmount",
          "type": "uint256"
        }
      ],
      "name": "mintAllowed",
      "outputs": [
        {
          "name": "",
          "type": "uint256"
        }
      ],
      "payable": false,
      "stateMutability": "nonpayable",
      "type": "function"
    },
    {
      "constant": false,
      "inputs": [
        {
          "name": "newLiquidationIncentiveMantissa",
          "type": "uint256"
        }
      ],
      "name": "_setLiquidationIncentive",
      "outputs": [
        {
          "name": "",
          "type": "uint256"
        }
      ],
      "payable": false,
      "stateMutability": "nonpayable",
      "type": "function"
    },
    {
      "constant": false,
      "inputs": [
        {
          "name": "cToken",
          "type": "address"
        },
        {
          "name": "redeemer",
          "type": "address"
        },
        {
          "name": "redeemAmount",
          "type": "uint256"
        },
        {
          "name": "redeemTokens",
          "type": "uint256"
        }
      ],
      "name": "redeemVerify",
      "outputs": [],
      "payable": false,
      "stateMutability": "nonpayable",
      "type": "function"
    },
    {
      "constant": false,
      "inputs": [
        {
          "name": "newOracle",
          "type": "address"
        }
      ],
      "name": "_setPriceOracle",
      "outputs": [
        {
          "name": "",
          "type": "uint256"
        }
      ],
      "payable": false,
      "stateMutability": "nonpayable",
      "type": "function"
    },
    {
      "constant": false,
      "inputs": [
        {
          "name": "cToken",
          "type": "address"
        },
        {
          "name": "borrower",
          "type": "address"
        },
        {
          "name": "borrowAmount",
          "type": "uint256"
        }
      ],
      "name": "borrowVerify",
      "outputs": [],
      "payable": false,
      "stateMutability": "nonpayable",
      "type": "function"
    },
    {
      "constant": true,
      "inputs": [
        {
          "name": "account",
          "type": "address"
        }
      ],
      "name": "getAccountLiquidity",
      "outputs": [
        {
          "name": "",
          "type": "uint256"
        },
        {
          "name": "",
          "type": "uint256"
        },
        {
          "name": "",
          "type": "uint256"
        }
      ],
      "payable": false,
      "stateMutability": "view",
      "type": "function"
    },
    {
      "constant": false,
      "inputs": [
        {
          "name": "cTokenBorrowed",
          "type": "address"
        },
        {
          "name": "cTokenCollateral",
          "type": "address"
        },
        {
          "name": "liquidator",
          "type": "address"
        },
        {
          "name": "borrower",
          "type": "address"
        },
        {
          "name": "repayAmount",
          "type": "uint256"
        }
      ],
      "name": "liquidateBorrowAllowed",
      "outputs": [
        {
          "name": "",
          "type": "uint256"
        }
      ],
      "payable": false,
      "stateMutability": "nonpayable",
      "type": "function"
    },
    {
      "constant": false,
      "inputs": [
        {
          "name": "cToken",
          "type": "address"
        },
        {
          "name": "src",
          "type": "address"
        },
        {
          "name": "dst",
          "type": "address"
        },
        {
          "name": "transferTokens",
          "type": "uint256"
        }
      ],
      "name": "transferVerify",
      "outputs": [],
      "payable": false,
      "stateMutability": "nonpayable",
      "type": "function"
    },
    {
      "constant": false,
      "inputs": [
        {
          "name": "cTokenCollateral",
          "type": "address"
        },
        {
          "name": "cTokenBorrowed",
          "type": "address"
        },
        {
          "name": "liquidator",
          "type": "address"
        },
        {
          "name": "borrower",
          "type": "address"
        },
        {
          "name": "seizeTokens",
          "type": "uint256"
        }
      ],
      "name": "seizeVerify",
      "outputs": [],
      "payable": false,
      "stateMutability": "nonpayable",
      "type": "function"
    },
    {
      "constant": true,
      "inputs": [],
      "name": "oracle",
      "outputs": [
        {
          "name": "",
          "type": "address"
        }
      ],
      "payable": false,
      "stateMutability": "view",
      "type": "function"
    },
    {
      "constant": true,
      "inputs": [
        {
          "name": "",
          "type": "address"
        }
      ],
      "name": "markets",
      "outputs": [
        {
          "name": "isListed",
          "type": "bool"
        },
        {
          "name": "collateralFactorMantissa",
          "type": "uint256"
        }
      ],
      "payable": false,
      "stateMutability": "view",
      "type": "function"
    },
    {
      "constant": true,
      "inputs": [
        {
          "name": "account",
          "type": "address"
        },
        {
          "name": "cToken",
          "type": "address"
        }
      ],
      "name": "checkMembership",
      "outputs": [
        {
          "name": "",
          "type": "bool"
        }
      ],
      "payable": false,
      "stateMutability": "view",
      "type": "function"
    },
    {
      "constant": true,
      "inputs": [],
      "name": "maxAssets",
      "outputs": [
        {
          "name": "",
          "type": "uint256"
        }
      ],
      "payable": false,
      "stateMutability": "view",
      "type": "function"
    },
    {
      "constant": false,
      "inputs": [
        {
          "name": "cToken",
          "type": "address"
        }
      ],
      "name": "_supportMarket",
      "outputs": [
        {
          "name": "",
          "type": "uint256"
        }
      ],
      "payable": false,
      "stateMutability": "nonpayable",
      "type": "function"
    },
    {
      "constant": true,
      "inputs": [
        {
          "name": "account",
          "type": "address"
        }
      ],
      "name": "getAssetsIn",
      "outputs": [
        {
          "name": "",
          "type": "address[]"
        }
      ],
      "payable": false,
      "stateMutability": "view",
      "type": "function"
    },
    {
      "constant": true,
      "inputs": [],
      "name": "comptrollerImplementation",
      "outputs": [
        {
          "name": "",
          "type": "address"
        }
      ],
      "payable": false,
      "stateMutability": "view",
      "type": "function"
    },
    {
      "constant": false,
      "inputs": [
        {
          "name": "cToken",
          "type": "address"
        },
        {
          "name": "src",
          "type": "address"
        },
        {
          "name": "dst",
          "type": "address"
        },
        {
          "name": "transferTokens",
          "type": "uint256"
        }
      ],
      "name": "transferAllowed",
      "outputs": [
        {
          "name": "",
          "type": "uint256"
        }
      ],
      "payable": false,
      "stateMutability": "nonpayable",
      "type": "function"
    },
    {
      "constant": false,
      "inputs": [
        {
          "name": "cTokens",
          "type": "address[]"
        }
      ],
      "name": "enterMarkets",
      "outputs": [
        {
          "name": "",
          "type": "uint256[]"
        }
      ],
      "payable": false,
      "stateMutability": "nonpayable",
      "type": "function"
    },
    {
      "constant": true,
      "inputs": [
        {
          "name": "cTokenBorrowed",
          "type": "address"
        },
        {
          "name": "cTokenCollateral",
          "type": "address"
        },
        {
          "name": "repayAmount",
          "type": "uint256"
        }
      ],
      "name": "liquidateCalculateSeizeTokens",
      "outputs": [
        {
          "name": "",
          "type": "uint256"
        },
        {
          "name": "",
          "type": "uint256"
        }
      ],
      "payable": false,
      "stateMutability": "view",
      "type": "function"
    },
    {
      "constant": false,
      "inputs": [
        {
          "name": "cTokenCollateral",
          "type": "address"
        },
        {
          "name": "cTokenBorrowed",
          "type": "address"
        },
        {
          "name": "liquidator",
          "type": "address"
        },
        {
          "name": "borrower",
          "type": "address"
        },
        {
          "name": "seizeTokens",
          "type": "uint256"
        }
      ],
      "name": "seizeAllowed",
      "outputs": [
        {
          "name": "",
          "type": "uint256"
        }
      ],
      "payable": false,
      "stateMutability": "nonpayable",
      "type": "function"
    },
    {
      "constant": false,
      "inputs": [
        {
          "name": "newMaxAssets",
          "type": "uint256"
        }
      ],
      "name": "_setMaxAssets",
      "outputs": [
        {
          "name": "",
          "type": "uint256"
        }
      ],
      "payable": false,
      "stateMutability": "nonpayable",
      "type": "function"
    },
    {
      "constant": false,
      "inputs": [
        {
          "name": "cToken",
          "type": "address"
        },
        {
          "name": "borrower",
          "type": "address"
        },
        {
          "name": "borrowAmount",
          "type": "uint256"
        }
      ],
      "name": "borrowAllowed",
      "outputs": [
        {
          "name": "",
          "type": "uint256"
        }
      ],
      "payable": false,
      "stateMutability": "nonpayable",
      "type": "function"
    },
    {
      "constant": true,
      "inputs": [
        {
          "name": "",
          "type": "address"
        },
        {
          "name": "",
          "type": "uint256"
        }
      ],
      "name": "accountAssets",
      "outputs": [
        {
          "name": "",
          "type": "address"
        }
      ],
      "payable": false,
      "stateMutability": "view",
      "type": "function"
    },
    {
      "constant": true,
      "inputs": [],
      "name": "pendingComptrollerImplementation",
      "outputs": [
        {
          "name": "",
          "type": "address"
        }
      ],
      "payable": false,
      "stateMutability": "view",
      "type": "function"
    },
    {
      "constant": false,
      "inputs": [
        {
          "name": "cToken",
          "type": "address"
        },
        {
          "name": "newCollateralFactorMantissa",
          "type": "uint256"
        }
      ],
      "name": "_setCollateralFactor",
      "outputs": [
        {
          "name": "",
          "type": "uint256"
        }
      ],
      "payable": false,
      "stateMutability": "nonpayable",
      "type": "function"
    },
    {
      "constant": true,
      "inputs": [],
      "name": "closeFactorMantissa",
      "outputs": [
        {
          "name": "",
          "type": "uint256"
        }
      ],
      "payable": false,
      "stateMutability": "view",
      "type": "function"
    },
    {
      "constant": false,
      "inputs": [
        {
          "name": "cToken",
          "type": "address"
        },
        {
          "name": "redeemer",
          "type": "address"
        },
        {
          "name": "redeemTokens",
          "type": "uint256"
        }
      ],
      "name": "redeemAllowed",
      "outputs": [
        {
          "name": "",
          "type": "uint256"
        }
      ],
      "payable": false,
      "stateMutability": "nonpayable",
      "type": "function"
    },
    {
      "constant": false,
      "inputs": [
        {
          "name": "cTokenAddress",
          "type": "address"
        }
      ],
      "name": "exitMarket",
      "outputs": [
        {
          "name": "",
          "type": "uint256"
        }
      ],
      "payable": false,
      "stateMutability": "nonpayable",
      "type": "function"
    },
    {
      "constant": true,
      "inputs": [],
      "name": "admin",
      "outputs": [
        {
          "name": "",
          "type": "address"
        }
      ],
      "payable": false,
      "stateMutability": "view",
      "type": "function"
    },
    {
      "anonymous": false,
      "inputs": [
        {
          "indexed": false,
          "name": "cToken",
          "type": "address"
        }
      ],
      "name": "MarketListed",
      "type": "event"
    },
    {
      "anonymous": false,
      "inputs": [
        {
          "indexed": false,
          "name": "cToken",
          "type": "address"
        },
        {
          "indexed": false,
          "name": "account",
          "type": "address"
        }
      ],
      "name": "MarketEntered",
      "type": "event"
    },
    {
      "anonymous": false,
      "inputs": [
        {
          "indexed": false,
          "name": "cToken",
          "type": "address"
        },
        {
          "indexed": false,
          "name": "account",
          "type": "address"
        }
      ],
      "name": "MarketExited",
      "type": "event"
    },
    {
      "anonymous": false,
      "inputs": [
        {
          "indexed": false,
          "name": "oldCloseFactorMantissa",
          "type": "uint256"
        },
        {
          "indexed": false,
          "name": "newCloseFactorMantissa",
          "type": "uint256"
        }
      ],
      "name": "NewCloseFactor",
      "type": "event"
    },
    {
      "anonymous": false,
      "inputs": [
        {
          "indexed": false,
          "name": "cToken",
          "type": "address"
        },
        {
          "indexed": false,
          "name": "oldCollateralFactorMantissa",
          "type": "uint256"
        },
        {
          "indexed": false,
          "name": "newCollateralFactorMantissa",
          "type": "uint256"
        }
      ],
      "name": "NewCollateralFactor",
      "type": "event"
    },
    {
      "anonymous": false,
      "inputs": [
        {
          "indexed": false,
          "name": "oldLiquidationIncentiveMantissa",
          "type": "uint256"
        },
        {
          "indexed": false,
          "name": "newLiquidationIncentiveMantissa",
          "type": "uint256"
        }
      ],
      "name": "NewLiquidationIncentive",
      "type": "event"
    },
    {
      "anonymous": false,
      "inputs": [
        {
          "indexed": false,
          "name": "oldMaxAssets",
          "type": "uint256"
        },
        {
          "indexed": false,
          "name": "newMaxAssets",
          "type": "uint256"
        }
      ],
      "name": "NewMaxAssets",
      "type": "event"
    },
    {
      "anonymous": false,
      "inputs": [
        {
          "indexed": false,
          "name": "oldPriceOracle",
          "type": "address"
        },
        {
          "indexed": false,
          "name": "newPriceOracle",
          "type": "address"
        }
      ],
      "name": "NewPriceOracle",
      "type": "event"
    },
    {
      "anonymous": false,
      "inputs": [
        {
          "indexed": false,
          "name": "error",
          "type": "uint256"
        },
        {
          "indexed": false,
          "name": "info",
          "type": "uint256"
        },
        {
          "indexed": false,
          "name": "detail",
          "type": "uint256"
        }
      ],
      "name": "Failure",
      "type": "event"
    }
  ],
  "bytecode": "0x6080604052600080546001600160a01b03191633179055612db2806100256000396000f3fe608060405234801561001057600080fd5b50600436106102915760003560e01c80638e8f294b11610160578063d02f7351116100d8578063e4028eee1161008c578063eabe7d9111610071578063eabe7d91146109a2578063ede4edd0146109d8578063f851a440146109fe57610291565b8063e4028eee1461096e578063e87554461461099a57610291565b8063da3d454c116100bd578063da3d454c14610904578063dce154491461093a578063dcfbc0c71461096657610291565b8063d02f7351146108a1578063d9226ced146108e757610291565b8063abfceffc1161012f578063bdcdc25811610114578063bdcdc25814610773578063c2998238146107af578063c488847b1461085257610291565b8063abfceffc146106f5578063bb82aa5e1461076b57610291565b80638e8f294b14610658578063929fe9a11461069957806394b2294b146106c7578063a76b3fda146106cf57610291565b80634ef4c3e11161020e5780635ec88c79116101c25780636a56947e116101a75780636a56947e146105ce5780636d35bf911461060a5780637dc0d1d01461065057610291565b80635ec88c79146105445780635fc7e71e1461058857610291565b806351dff989116101f357806351dff989146104ac57806355ee1fe1146104e85780635c7786051461050e57610291565b80634ef4c3e1146104595780634fd42e171461048f57610291565b8063317b0b771161026557806341c728b91161024a57806341c728b9146103c957806347ef3b3b146104055780634ada90af1461045157610291565b8063317b0b771461036857806332000e001461038557610291565b80627e3dd2146102965780631ededc91146102b257806324008a62146102f65780632678224714610344575b600080fd5b61029e610a06565b604080519115158252519081900360200190f35b6102f4600480360360a08110156102c857600080fd5b506001600160a01b03813581169160208101358216916040820135169060608101359060800135610a0b565b005b6103326004803603608081101561030c57600080fd5b506001600160a01b03813581169160208101358216916040820135169060600135610a12565b60408051918252519081900360200190f35b61034c610a48565b604080516001600160a01b039092168252519081900360200190f35b6103326004803603602081101561037e57600080fd5b5035610a57565b6102f4600480360360a081101561039b57600080fd5b506001600160a01b038135811691602081013590911690604081013590606081013590608001351515610b65565b6102f4600480360360808110156103df57600080fd5b506001600160a01b0381358116916020810135909116906040810135906060013561102d565b6102f4600480360360c081101561041b57600080fd5b506001600160a01b0381358116916020810135821691604082013581169160608101359091169060808101359060a00135611033565b610332611038565b6103326004803603606081101561046f57600080fd5b506001600160a01b0381358116916020810135909116906040013561103e565b610332600480360360208110156104a557600080fd5b5035611075565b6102f4600480360360808110156104c257600080fd5b506001600160a01b03813581169160208101359091169060408101359060600135611164565b610332600480360360208110156104fe57600080fd5b50356001600160a01b03166111c7565b6102f46004803603606081101561052457600080fd5b506001600160a01b03813581169160208101359091169060400135611256565b61056a6004803603602081101561055a57600080fd5b50356001600160a01b031661125b565b60408051938452602084019290925282820152519081900360600190f35b610332600480360360a081101561059e57600080fd5b506001600160a01b0381358116916020810135821691604082013581169160608101359091169060800135611290565b6102f4600480360360808110156105e457600080fd5b506001600160a01b0381358116916020810135821691604082013516906060013561102d565b6102f4600480360360a081101561062057600080fd5b506001600160a01b0381358116916020810135821691604082013581169160608101359091169060800135610a0b565b61034c611417565b61067e6004803603602081101561066e57600080fd5b50356001600160a01b0316611426565b60408051921515835260208301919091528051918290030190f35b61029e600480360360408110156106af57600080fd5b506001600160a01b0381358116916020013516611445565b610332611479565b610332600480360360208110156106e557600080fd5b50356001600160a01b031661147f565b61071b6004803603602081101561070b57600080fd5b50356001600160a01b03166115ae565b60408051602080825283518183015283519192839290830191858101910280838360005b8381101561075757818101518382015260200161073f565b505050509050019250505060405180910390f35b61034c611637565b6103326004803603608081101561078957600080fd5b506001600160a01b03813581169160208101358216916040820135169060600135611646565b61071b600480360360208110156107c557600080fd5b8101906020810181356401000000008111156107e057600080fd5b8201836020820111156107f257600080fd5b8035906020019184602083028401116401000000008311171561081457600080fd5b919080806020026020016040519081016040528093929190818152602001838360200280828437600092019190915250929550611653945050505050565b6108886004803603606081101561086857600080fd5b506001600160a01b03813581169160208101359091169060400135611804565b6040805192835260208301919091528051918290030190f35b610332600480360360a08110156108b757600080fd5b506001600160a01b0381358116916020810135821691604082013581169160608101359091169060800135611a7f565b610332600480360360208110156108fd57600080fd5b5035611bdb565b6103326004803603606081101561091a57600080fd5b506001600160a01b03813581169160208101359091169060400135611c3f565b61034c6004803603604081101561095057600080fd5b506001600160a01b038135169060200135611d76565b61034c611dab565b6103326004803603604081101561098457600080fd5b506001600160a01b038135169060200135611dba565b610332611f6d565b610332600480360360608110156109b857600080fd5b506001600160a01b03813581169160208101359091169060400135611f73565b610332600480360360208110156109ee57600080fd5b50356001600160a01b0316611f80565b61034c6122a3565b600181565b5050505050565b6001600160a01b03841660009081526009602052604081205460ff16610a3a57506009610a40565b60005b90505b949350505050565b6001546001600160a01b031681565b6000610a616122b2565b610a7857610a71600160046122fd565b9050610b60565b610a80612c7b565b506040805160208101909152828152610a97612c7b565b50604080516020810190915266b1a2bc2ec500008152610ab78282612363565b15610ad057610ac76005806122fd565b92505050610b60565b610ad8612c7b565b506040805160208101909152670c7d713b49da00008152610af9818461236b565b15610b1357610b096005806122fd565b9350505050610b60565b6005805490869055604080518281526020810188905281517f3b9670cf975d26958e754b57098eaa2ac914d8d2a31b83257997b9f346110fd9929181900390910190a160005b9450505050505b919050565b846001600160a01b031663f851a4406040518163ffffffff1660e01b815260040160206040518083038186803b158015610b9e57600080fd5b505afa158015610bb2573d6000803e3d6000fd5b505050506040513d6020811015610bc857600080fd5b50516001600160a01b03163314610c1357604051600160e51b62461bcd028152600401808060200182810382526027815260200180612d606027913960400191505060405180910390fd5b6000856001600160a01b031663c1e803346040518163ffffffff1660e01b8152600401602060405180830381600087803b158015610c5057600080fd5b505af1158015610c64573d6000803e3d6000fd5b505050506040513d6020811015610c7a57600080fd5b505190508015610cd45760408051600160e51b62461bcd02815260206004820152601560248201527f6368616e6765206e6f7420617574686f72697a65640000000000000000000000604482015290519081900360640190fd5b816110255760008690506000816001600160a01b03166355ee1fe1886040518263ffffffff1660e01b815260040180826001600160a01b03166001600160a01b03168152602001915050602060405180830381600087803b158015610d3857600080fd5b505af1158015610d4c573d6000803e3d6000fd5b505050506040513d6020811015610d6257600080fd5b505190508015610dbc5760408051600160e51b62461bcd02815260206004820152601660248201527f736574207072696365206f7261636c65206572726f7200000000000000000000604482015290519081900360640190fd5b816001600160a01b031663317b0b77876040518263ffffffff1660e01b815260040180828152602001915050602060405180830381600087803b158015610e0257600080fd5b505af1158015610e16573d6000803e3d6000fd5b505050506040513d6020811015610e2c57600080fd5b505190508015610e865760408051600160e51b62461bcd02815260206004820152601660248201527f73657420636c6f736520666163746f72206572726f7200000000000000000000604482015290519081900360640190fd5b816001600160a01b031663d9226ced866040518263ffffffff1660e01b815260040180828152602001915050602060405180830381600087803b158015610ecc57600080fd5b505af1158015610ee0573d6000803e3d6000fd5b505050506040513d6020811015610ef657600080fd5b505190508015610f505760408051600160e51b62461bcd02815260206004820152601560248201527f736574206d61782061737373657473206572726f720000000000000000000000604482015290519081900360640190fd5b816001600160a01b0316634fd42e17670de0b6b3a76400006040518263ffffffff1660e01b815260040180828152602001915050602060405180830381600087803b158015610f9e57600080fd5b505af1158015610fb2573d6000803e3d6000fd5b505050506040513d6020811015610fc857600080fd5b5051905080156110225760408051600160e51b62461bcd02815260206004820152601f60248201527f736574206c69717569646174696f6e20696e63656e74697665206572726f7200604482015290519081900360640190fd5b50505b505050505050565b50505050565b611025565b60065481565b6001600160a01b03831660009081526009602052604081205460ff166110685760095b905061106e565b60005b90505b9392505050565b600061107f6122b2565b61108f57610a716001600b6122fd565b611097612c7b565b5060408051602081019091528281526110ae612c7b565b506040805160208101909152670de0b6b3a764000081526110cf828261236b565b156110e057610ac76007600c6122fd565b6110e8612c7b565b5060408051602081019091526714d1120d7b1600008152611109818461236b565b1561111a57610b096007600c6122fd565b6006805490869055604080518281526020810188905281517faeba5a6c40a8ac138134bff1aaa65debf25971188a58804bad717f82f0ec1316929181900390910190a16000610b59565b801580156111725750600082115b1561102d5760408051600160e51b62461bcd02815260206004820152601160248201527f72656465656d546f6b656e73207a65726f000000000000000000000000000000604482015290519081900360640190fd5b60006111d16122b2565b6111e157610a71600160106122fd565b600480546001600160a01b0384811673ffffffffffffffffffffffffffffffffffffffff19831681179093556040805191909216808252602082019390935281517fd52b2b9b7e9ee655fcb95d2e5b9e0c9f69e7ef2b8e9d2d0ea78402d576d22e22929181900390910190a160009392505050565b505050565b600080600080600080611272876000806000612372565b92509250925082601181111561128457fe5b97919650945092505050565b6001600160a01b03851660009081526009602052604081205460ff1615806112d157506001600160a01b03851660009081526009602052604090205460ff16155b156112e05760095b905061140e565b6000806112ec8561279a565b9193509091506000905082601181111561130257fe5b1461131c5781601181111561131357fe5b9250505061140e565b80611328576003611313565b6000886001600160a01b03166395dd9193876040518263ffffffff1660e01b815260040180826001600160a01b03166001600160a01b0316815260200191505060206040518083038186803b15801561138057600080fd5b505afa158015611394573d6000803e3d6000fd5b505050506040513d60208110156113aa57600080fd5b50516040805160208101909152600554815290915060009081906113ce90846127ba565b909250905060008260038111156113e157fe5b146113f557600b5b9550505050505061140e565b808711156114045760116113e9565b6000955050505050505b95945050505050565b6004546001600160a01b031681565b6009602052600090815260409020805460019091015460ff9091169082565b6001600160a01b038082166000908152600960209081526040808320938616835260029093019052205460ff165b92915050565b60075481565b600080546001600160a01b0316331461149e57610a71600160126122fd565b6001600160a01b03821660009081526009602052604090205460ff16156114cb57610a71600a60116122fd565b816001600160a01b031663fe9c44ae6040518163ffffffff1660e01b815260040160206040518083038186803b15801561150457600080fd5b505afa158015611518573d6000803e3d6000fd5b505050506040513d602081101561152e57600080fd5b50506040805180820182526001808252600060208084018281526001600160a01b03881680845260098352928690209451855460ff1916901515178555519390920192909255825191825291517fcf583bb0c569eb967f806b11601c4cb93c10310485c67add5f8362c2f212321f929181900390910190a1600092915050565b60608060086000846001600160a01b03166001600160a01b0316815260200190815260200160002080548060200260200160405190810160405280929190818152602001828054801561162a57602002820191906000526020600020905b81546001600160a01b0316815260019091019060200180831161160c575b5093979650505050505050565b6002546001600160a01b031681565b6000610a3d85858461280e565b6060600082519050606081604051908082528060200260200182016040528015611687578160200160208202803883390190505b50905060005b828110156117fc5760008582815181106116a357fe5b6020908102919091018101516001600160a01b03811660009081526009909252604090912080549192509060ff166116f75760095b8484815181106116e457fe5b60200260200101818152505050506117f4565b33600090815260028201602052604090205460ff1615156001141561171d5760006116d8565b600754336000908152600860205260409020541061173c5760106116d8565b3360008181526002830160209081526040808320805460ff19166001908117909155600883528184208054918201815584529282902090920180546001600160a01b03871673ffffffffffffffffffffffffffffffffffffffff19909116811790915582519081529081019290925280517f3ab23ab0d51cccc0c3085aec51f99228625aa1a922b3a8ca89a26b0f2027a1a59281900390910190a160008484815181106117e557fe5b60200260200101818152505050505b60010161168d565b509392505050565b6004805460408051600160e01b63fc57d4df0281526001600160a01b038781169482019490945290516000938493849391169163fc57d4df91602480820192602092909190829003018186803b15801561185d57600080fd5b505afa158015611871573d6000803e3d6000fd5b505050506040513d602081101561188757600080fd5b50516004805460408051600160e01b63fc57d4df0281526001600160a01b038a8116948201949094529051939450600093929091169163fc57d4df91602480820192602092909190829003018186803b1580156118e357600080fd5b505afa1580156118f7573d6000803e3d6000fd5b505050506040513d602081101561190d57600080fd5b5051905081158061191c575080155b1561193157600d935060009250611a77915050565b6000866001600160a01b031663182df0f56040518163ffffffff1660e01b815260040160206040518083038186803b15801561196c57600080fd5b505afa158015611980573d6000803e3d6000fd5b505050506040513d602081101561199657600080fd5b5051905060006119a4612c7b565b6119ac612c7b565b6119b4612c7b565b60006119c26006548961287d565b9450905060008160038111156119d457fe5b146119f057600b5b995060009850611a77975050505050505050565b6119fa878761287d565b935090506000816003811115611a0c57fe5b14611a1857600b6119dc565b611a2284846128b8565b925090506000816003811115611a3457fe5b14611a4057600b6119dc565b611a4a828c6127ba565b955090506000816003811115611a5c57fe5b14611a6857600b6119dc565b60009950939750505050505050505b935093915050565b6001600160a01b03851660009081526009602052604081205460ff161580611ac057506001600160a01b03851660009081526009602052604090205460ff16155b15611acc5760096112d9565b846001600160a01b0316635fe3b5676040518163ffffffff1660e01b815260040160206040518083038186803b158015611b0557600080fd5b505afa158015611b19573d6000803e3d6000fd5b505050506040513d6020811015611b2f57600080fd5b5051604080517f5fe3b56700000000000000000000000000000000000000000000000000000000815290516001600160a01b0392831692891691635fe3b567916004808301926020929190829003018186803b158015611b8e57600080fd5b505afa158015611ba2573d6000803e3d6000fd5b505050506040513d6020811015611bb857600080fd5b50516001600160a01b031614611bcf5760026112d9565b60009695505050505050565b6000611be56122b2565b611bf557610a716001600d6122fd565b6007805490839055604080518281526020810185905281517f7093cf1eb653f749c3ff531d6df7f92764536a7fa0d13530cd26e070780c32ea929181900390910190a1600061106e565b6001600160a01b03831660009081526009602052604081205460ff16611c66576009611061565b6001600160a01b038085166000908152600960209081526040808320938716835260029093019052205460ff16611c9e576008611061565b6004805460408051600160e01b63fc57d4df0281526001600160a01b03888116948201949094529051929091169163fc57d4df91602480820192602092909190829003018186803b158015611cf257600080fd5b505afa158015611d06573d6000803e3d6000fd5b505050506040513d6020811015611d1c57600080fd5b5051611d2957600d611061565b600080611d398587600087612372565b91935090915060009050826011811115611d4f57fe5b14611d6957816011811115611d6057fe5b9250505061106e565b8015611bcf576004611d60565b60086020528160005260406000208181548110611d8f57fe5b6000918252602090912001546001600160a01b03169150829050565b6003546001600160a01b031681565b600080546001600160a01b03163314611de057611dd9600160066122fd565b9050611473565b6001600160a01b0383166000908152600960205260409020805460ff16611e1557611e0d600960076122fd565b915050611473565b611e1d612c7b565b506040805160208101909152838152611e34612c7b565b506040805160208101909152670c7d713b49da00008152611e55818361236b565b15611e7057611e66600660086122fd565b9350505050611473565b8415801590611efc57506004805460408051600160e01b63fc57d4df0281526001600160a01b038a8116948201949094529051929091169163fc57d4df91602480820192602092909190829003018186803b158015611ece57600080fd5b505afa158015611ee2573d6000803e3d6000fd5b505050506040513d6020811015611ef857600080fd5b5051155b15611f0d57611e66600d60096122fd565b60018301805490869055604080516001600160a01b03891681526020810183905280820188905290517f70483e6592cd5182d45ac970e05bc62cdcc90e9d8ef2c2dbe686cf383bcd7fc59181900360600190a16000979650505050505050565b60055481565b600061106b84848461280e565b6000808290506000806000836001600160a01b031663c37f68e2336040518263ffffffff1660e01b815260040180826001600160a01b03166001600160a01b0316815260200191505060806040518083038186803b158015611fe157600080fd5b505afa158015611ff5573d6000803e3d6000fd5b505050506040513d608081101561200b57600080fd5b50805160208201516040909201519094509092509050821561206157604051600160e51b62461bcd028152600401808060200182810382526025815260200180612d3b6025913960400191505060405180910390fd5b801561207e57612073600c60026122fd565b945050505050610b60565b600061208b87338561280e565b905080156120ac576120a0600e6003836128d0565b95505050505050610b60565b6001600160a01b0385166000908152600960209081526040808320338452600281019092529091205460ff166120eb5760009650505050505050610b60565b3360009081526002820160209081526040808320805460ff19169055600882529182902080548351818402810184019094528084526060939283018282801561215d57602002820191906000526020600020905b81546001600160a01b0316815260019091019060200180831161213f575b5050835193945083925060009150505b828110156121b257896001600160a01b031684828151811061218b57fe5b60200260200101516001600160a01b031614156121aa578091506121b2565b60010161216d565b508181106121bc57fe5b3360009081526008602052604090208054819060001981019081106121dd57fe5b9060005260206000200160009054906101000a90046001600160a01b031681838154811061220757fe5b6000918252602090912001805473ffffffffffffffffffffffffffffffffffffffff19166001600160a01b0392909216919091179055805461224d826000198301612c8e565b50604080516001600160a01b038c16815233602082015281517fe699a64c18b07ac5b7301aa273f36a2287239eb9501d81950672794afba29a0d929181900390910190a160009c9b505050505050505050505050565b6000546001600160a01b031681565b60025460009081906001600160a01b0316331480156122db57506000546001600160a01b031632145b6000549091506001600160a01b0316331480806122f55750815b925050505b90565b60007f45b96fe442630264581b197e84bbada861235052c5a1aadfff9ea4e40a969aa083601181111561232c57fe5b83601381111561233857fe5b604080519283526020830191909152600082820152519081900360600190a182601181111561106e57fe5b519051111590565b5190511090565b600080600061237f612cb2565b6001600160a01b0388166000908152600860209081526040808320805482518185028101850190935280835284936060939291908301828280156123ec57602002820191906000526020600020905b81546001600160a01b031681526001909101906020018083116123ce575b50939450600093505050505b815181101561274b57600082828151811061240f57fe5b60200260200101519050806001600160a01b031663c37f68e28e6040518263ffffffff1660e01b815260040180826001600160a01b03166001600160a01b0316815260200191505060806040518083038186803b15801561246f57600080fd5b505afa158015612483573d6000803e3d6000fd5b505050506040513d608081101561249957600080fd5b508051602082015160408084015160609485015160808c0152938a019390935291880191909152945084156124df5750600f975060009650869550612790945050505050565b60408051602080820183526001600160a01b0380851660008181526009845285902060010154845260c08b01939093528351808301855260808b0151815260e08b0152600480548551600160e01b63fc57d4df02815291820194909452935192169263fc57d4df9260248083019392829003018186803b15801561256257600080fd5b505afa158015612576573d6000803e3d6000fd5b505050506040513d602081101561258c57600080fd5b505160a087018190526125b05750600d975060009650869550612790945050505050565b604080516020810190915260a08701518152610100870181905260c087015160e08801516125dd92612936565b610120880152935060008460038111156125f357fe5b1461260f5750600b975060009650869550612790945050505050565b6126278661012001518760400151886000015161298e565b87529350600084600381111561263957fe5b146126555750600b975060009650869550612790945050505050565b61266d8661010001518760600151886020015161298e565b60208801529350600084600381111561268257fe5b1461269e5750600b975060009650869550612790945050505050565b8b6001600160a01b0316816001600160a01b03161415612742576126cc8661012001518c886020015161298e565b6020880152935060008460038111156126e157fe5b146126fd5750600b975060009650869550612790945050505050565b6127118661010001518b886020015161298e565b60208801529350600084600381111561272657fe5b146127425750600b975060009650869550612790945050505050565b506001016123f8565b50602084015184511115612772575050506020810151905160009450039150829050612790565b50508151602090920151600095508594509190910391506127909050565b9450945094915050565b60008060006127ad846000806000612372565b9250925092509193909250565b60008060006127c7612c7b565b6127d186866129db565b909250905060008260038111156127e457fe5b146127f55750915060009050612807565b600061280082612a43565b9350935050505b9250929050565b6001600160a01b03831660009081526009602052604081205460ff16612835576009611061565b6001600160a01b038085166000908152600960209081526040808320938716835260029093019052205460ff1661286d576000611061565b600080611d398587866000612372565b6000612887612c7b565b6128ad604051806020016040528086815250604051806020016040528086815250612a52565b915091509250929050565b60006128c2612c7b565b835183516128ad9190612b3b565b60007f45b96fe442630264581b197e84bbada861235052c5a1aadfff9ea4e40a969aa08460118111156128ff57fe5b84601381111561290b57fe5b604080519283526020830191909152818101859052519081900360600190a183601181111561106b57fe5b6000612940612c7b565b600061294a612c7b565b6129548787612a52565b9092509050600082600381111561296757fe5b14612976579092509050611a77565b6129808186612a52565b935093505050935093915050565b600080600061299b612c7b565b6129a587876129db565b909250905060008260038111156129b857fe5b146129c95750915060009050611a77565b6129806129d582612a43565b86612beb565b60006129e5612c7b565b6000806129f6866000015186612c11565b90925090506000826003811115612a0957fe5b14612a2857506040805160208101909152600081529092509050612807565b60408051602081019091529081526000969095509350505050565b51670de0b6b3a7640000900490565b6000612a5c612c7b565b600080612a7186600001518660000151612c11565b90925090506000826003811115612a8457fe5b14612aa357506040805160208101909152600081529092509050612807565b600080612ab86706f05b59d3b2000084612beb565b90925090506000826003811115612acb57fe5b14612aed57506040805160208101909152600081529094509250612807915050565b600080612b0283670de0b6b3a7640000612c50565b90925090506000826003811115612b1557fe5b14612b1c57fe5b604080516020810190915290815260009a909950975050505050505050565b6000612b45612c7b565b600080612b5a86670de0b6b3a7640000612c11565b90925090506000826003811115612b6d57fe5b14612b8c57506040805160208101909152600081529092509050612807565b600080612b998388612c50565b90925090506000826003811115612bac57fe5b14612bce57506040805160208101909152600081529094509250612807915050565b604080516020810190915290815260009890975095505050505050565b600080838301848110612c0357600092509050612807565b506002915060009050612807565b60008083612c2457506000905080612807565b83830283858281612c3157fe5b0414612c4557506002915060009050612807565b600092509050612807565b60008082612c645750600190506000612807565b6000838581612c6f57fe5b04915091509250929050565b6040518060200160405280600081525090565b81548183558181111561125657600083815260209020611256918101908301612d1c565b604051806101400160405280600081526020016000815260200160008152602001600081526020016000815260200160008152602001612cf0612c7b565b8152602001612cfd612c7b565b8152602001612d0a612c7b565b8152602001612d17612c7b565b905290565b6122fa91905b80821115612d365760008155600101612d22565b509056fe657869744d61726b65743a206765744163636f756e74536e617073686f74206661696c65646f6e6c7920756e6974726f6c6c65722061646d696e2063616e206368616e676520627261696e73a165627a7a72305820a5c44ab452158c079be36767f19c8318a962ce11ad7788e508c2aa28fc3558510029",
  "linkReferences": {},
  "deployedLinkReferences": {}
}