{
  "_format": "hh-sol-artifact-1",
  "contractName": "ReFiReEURInterestRateModel",
  "sourceName": "contracts/lending/contracts/ReFi/ReFiReEURInterestRateModel.sol",
  "abi": [
    {
      "constant": true,
      "inputs": [
        {
          "name": "cash",
          "type": "uint256"
        },
        {
          "name": "borrows",
          "type": "uint256"
        },
        {
          "name": "_reserves",
          "type": "uint256"
        }
      ],
      "name": "getBorrowRate",
      "outputs": [
        {
          "name": "",
          "type": "uint256"
        },
        {
          "name": "",
          "type": "uint256"
        }
      ],
      "payable": false,
      "stateMutability": "view",
      "type": "function"
    },
    {
      "constant": true,
      "inputs": [],
      "name": "multiplier",
      "outputs": [
        {
          "name": "",
          "type": "uint256"
        }
      ],
      "payable": false,
      "stateMutability": "view",
      "type": "function"
    },
    {
      "constant": true,
      "inputs": [],
      "name": "baseRate",
      "outputs": [
        {
          "name": "",
          "type": "uint256"
        }
      ],
      "payable": false,
      "stateMutability": "view",
      "type": "function"
    },
    {
      "constant": true,
      "inputs": [],
      "name": "isInterestRateModel",
      "outputs": [
        {
          "name": "",
          "type": "bool"
        }
      ],
      "payable": false,
      "stateMutability": "view",
      "type": "function"
    },
    {
      "constant": true,
      "inputs": [],
      "name": "blocksPerYear",
      "outputs": [
        {
          "name": "",
          "type": "uint256"
        }
      ],
      "payable": false,
      "stateMutability": "view",
      "type": "function"
    },
    {
      "inputs": [],
      "payable": false,
      "stateMutability": "nonpayable",
      "type": "constructor"
    }
  ],
  "bytecode": "0x608060405234801561001057600080fd5b5066b1a2bc2ec500006001556701aa535d3d0c0000600055610622806100376000396000f3fe608060405234801561001057600080fd5b50600436106100675760003560e01c80631f68f20a116100505780631f68f20a146100c85780632191f92a146100d0578063a385fb96146100ec57610067565b806315f240531461006c5780631b3ed722146100ae575b600080fd5b6100956004803603606081101561008257600080fd5b50803590602081013590604001356100f4565b6040805192835260208301919091528051918290030190f35b6100b661018d565b60408051918252519081900360200190f35b6100b6610193565b6100d8610199565b604080519115158252519081900360200190f35b6100b661019e565b60008060006101016105e3565b6101096105e3565b61011388886101a5565b91945092509050600083600481111561012857fe5b146101485782600481111561013957fe5b94506000935061018592505050565b60006101526105e3565b61015f8362201480610322565b9092509050600082600381111561017257fe5b1461017957fe5b51600096509450505050505b935093915050565b60005481565b60015481565b600181565b6220148081565b60006101af6105e3565b6101b76105e3565b60006101c16105e3565b6101cb878761038c565b909250905060008260048111156101de57fe5b1461020c5750604080516020808201835260008083528351918201909352918252919450909250905061031b565b60006102166105e3565b6102228360005461044e565b9092509050600082600381111561023557fe5b14610267575050604080516020808201835260008083528351918201909352918252600396509450925061031b915050565b60006102716105e3565b61028383670de0b6b3a7640000610322565b9092509050600082600381111561029657fe5b1461029d57fe5b60006102a76105e3565b6102c1836040518060200160405280600154815250610469565b909250905060008260038111156102d457fe5b1461030a57505060408051602080820183526000808352835191820190935291825260049a509850965061031b95505050505050565b60009a509598509496505050505050505b9250925092565b600061032c6105e3565b60008061033d8660000151866104a3565b9092509050600082600381111561035057fe5b1461036f57506040805160208101909152600081529092509050610385565b6040805160208101909152908152600093509150505b9250929050565b60006103966105e3565b826103b35750506040805160208101909152600080825290610385565b6000806103c086866104ce565b909250905060008260038111156103d357fe5b146103f4575050604080516020810190915260008152600192509050610385565b60006103fe6105e3565b61040887846104f4565b9092509050600082600381111561041b57fe5b1461043f575050604080516020810190915260008152600294509250610385915050565b60009890975095505050505050565b60006104586105e3565b60008061033d8660000151866105a4565b60006104736105e3565b600080610488866000015186600001516104ce565b60408051602081019091529081529097909650945050505050565b600080826104b75750600190506000610385565b60008385816104c257fe5b04915091509250929050565b6000808383018481106104e657600092509050610385565b506002915060009050610385565b60006104fe6105e3565b60008061051386670de0b6b3a76400006105a4565b9092509050600082600381111561052657fe5b1461054557506040805160208101909152600081529092509050610385565b60008061055283886104a3565b9092509050600082600381111561056557fe5b1461058757506040805160208101909152600081529094509250610385915050565b604080516020810190915290815260009890975095505050505050565b600080836105b757506000905080610385565b838302838582816105c457fe5b04146105d857506002915060009050610385565b600092509050610385565b604051806020016040528060008152509056fea165627a7a723058201e9cb919e43265c06e454e2e6dc4cf415757825ef657d537b4e752cfd1c4e6030029",
  "linkReferences": {},
  "deployedLinkReferences": {}
}