{
  "_format": "hh-sol-artifact-1",
  "contractName": "ReFiReEURPriceOracle",
  "sourceName": "contracts/lending/contracts/ReFi/ReFiReEURPriceOracle.sol",
  "abi": [
    {
      "constant": true,
      "inputs": [],
      "name": "isPriceOracle",
      "outputs": [
        {
          "name": "",
          "type": "bool"
        }
      ],
      "payable": false,
      "stateMutability": "view",
      "type": "function"
    },
    {
      "constant": true,
      "inputs": [
        {
          "name": "cToken",
          "type": "address"
        }
      ],
      "name": "getUnderlyingPrice",
      "outputs": [
        {
          "name": "",
          "type": "uint256"
        }
      ],
      "payable": false,
      "stateMutability": "view",
      "type": "function"
    }
  ],
  "bytecode": "0x608060405234801561001057600080fd5b5060d18061001f6000396000f3fe6080604052348015600f57600080fd5b506004361060325760003560e01c806366331bba146037578063fc57d4df146051575b600080fd5b603d6093565b604080519115158252519081900360200190f35b608160048036036020811015606557600080fd5b503573ffffffffffffffffffffffffffffffffffffffff166098565b60408051918252519081900360200190f35b600181565b50670de0b6b3a76400009056fea165627a7a7230582006624d81936709b3b9941f16f03e06dafc8b374b80357144424b6d25dafd9e490029",
  "linkReferences": {},
  "deployedLinkReferences": {}
}