{
  "_format": "hh-sol-artifact-1",
  "contractName": "StableCoin",
  "sourceName": "contracts/StableCoin.sol",
  "abi": [
    {
      "inputs": [],
      "stateMutability": "nonpayable",
      "type": "constructor"
    },
    {
      "anonymous": false,
      "inputs": [
        {
          "indexed": true,
          "internalType": "address",
          "name": "owner",
          "type": "address"
        },
        {
          "indexed": true,
          "internalType": "address",
          "name": "spender",
          "type": "address"
        },
        {
          "indexed": false,
          "internalType": "uint256",
          "name": "value",
          "type": "uint256"
        }
      ],
      "name": "Approval",
      "type": "event"
    },
    {
      "anonymous": false,
      "inputs": [
        {
          "indexed": true,
          "internalType": "address",
          "name": "from",
          "type": "address"
        },
        {
          "indexed": true,
          "internalType": "address",
          "name": "to",
          "type": "address"
        },
        {
          "indexed": false,
          "internalType": "uint256",
          "name": "value",
          "type": "uint256"
        }
      ],
      "name": "Transfer",
      "type": "event"
    },
    {
      "inputs": [
        {
          "internalType": "address",
          "name": "owner",
          "type": "address"
        },
        {
          "internalType": "address",
          "name": "spender",
          "type": "address"
        }
      ],
      "name": "allowance",
      "outputs": [
        {
          "internalType": "uint256",
          "name": "",
          "type": "uint256"
        }
      ],
      "stateMutability": "view",
      "type": "function"
    },
    {
      "inputs": [
        {
          "internalType": "address",
          "name": "spender",
          "type": "address"
        },
        {
          "internalType": "uint256",
          "name": "amount",
          "type": "uint256"
        }
      ],
      "name": "approve",
      "outputs": [
        {
          "internalType": "bool",
          "name": "",
          "type": "bool"
        }
      ],
      "stateMutability": "nonpayable",
      "type": "function"
    },
    {
      "inputs": [
        {
          "internalType": "address",
          "name": "account",
          "type": "address"
        }
      ],
      "name": "balanceOf",
      "outputs": [
        {
          "internalType": "uint256",
          "name": "",
          "type": "uint256"
        }
      ],
      "stateMutability": "view",
      "type": "function"
    },
    {
      "inputs": [],
      "name": "decimals",
      "outputs": [
        {
          "internalType": "uint8",
          "name": "",
          "type": "uint8"
        }
      ],
      "stateMutability": "view",
      "type": "function"
    },
    {
      "inputs": [
        {
          "internalType": "address",
          "name": "spender",
          "type": "address"
        },
        {
          "internalType": "uint256",
          "name": "subtractedValue",
          "type": "uint256"
        }
      ],
      "name": "decreaseAllowance",
      "outputs": [
        {
          "internalType": "bool",
          "name": "",
          "type": "bool"
        }
      ],
      "stateMutability": "nonpayable",
      "type": "function"
    },
    {
      "inputs": [
        {
          "internalType": "address",
          "name": "spender",
          "type": "address"
        },
        {
          "internalType": "uint256",
          "name": "addedValue",
          "type": "uint256"
        }
      ],
      "name": "increaseAllowance",
      "outputs": [
        {
          "internalType": "bool",
          "name": "",
          "type": "bool"
        }
      ],
      "stateMutability": "nonpayable",
      "type": "function"
    },
    {
      "inputs": [
        {
          "internalType": "address",
          "name": "",
          "type": "address"
        }
      ],
      "name": "lockTime",
      "outputs": [
        {
          "internalType": "uint256",
          "name": "",
          "type": "uint256"
        }
      ],
      "stateMutability": "view",
      "type": "function"
    },
    {
      "inputs": [],
      "name": "name",
      "outputs": [
        {
          "internalType": "string",
          "name": "",
          "type": "string"
        }
      ],
      "stateMutability": "view",
      "type": "function"
    },
    {
      "inputs": [],
      "name": "requestTokens",
      "outputs": [],
      "stateMutability": "nonpayable",
      "type": "function"
    },
    {
      "inputs": [],
      "name": "symbol",
      "outputs": [
        {
          "internalType": "string",
          "name": "",
          "type": "string"
        }
      ],
      "stateMutability": "view",
      "type": "function"
    },
    {
      "inputs": [],
      "name": "totalSupply",
      "outputs": [
        {
          "internalType": "uint256",
          "name": "",
          "type": "uint256"
        }
      ],
      "stateMutability": "view",
      "type": "function"
    },
    {
      "inputs": [
        {
          "internalType": "address",
          "name": "recipient",
          "type": "address"
        },
        {
          "internalType": "uint256",
          "name": "amount",
          "type": "uint256"
        }
      ],
      "name": "transfer",
      "outputs": [
        {
          "internalType": "bool",
          "name": "",
          "type": "bool"
        }
      ],
      "stateMutability": "nonpayable",
      "type": "function"
    },
    {
      "inputs": [
        {
          "internalType": "address",
          "name": "sender",
          "type": "address"
        },
        {
          "internalType": "address",
          "name": "recipient",
          "type": "address"
        },
        {
          "internalType": "uint256",
          "name": "amount",
          "type": "uint256"
        }
      ],
      "name": "transferFrom",
      "outputs": [
        {
          "internalType": "bool",
          "name": "",
          "type": "bool"
        }
      ],
      "stateMutability": "nonpayable",
      "type": "function"
    }
  ],
  "bytecode": "0x60806040523480156200001157600080fd5b50604080518082018252600e81526d29ba30b13632a1b7b4b71022aaa960911b60208083019182528351808501909452600484526332a2aaa960e11b908401528151919291620000649160039162000187565b5080516200007a90600490602084019062000187565b5050506200009a336a084595161401484a000000620000a060201b60201c565b620002cf565b6001600160a01b038216620000d25760405162461bcd60e51b8152600401620000c9906200022d565b60405180910390fd5b620000e06000838362000182565b8060026000828254620000f491906200026d565b90915550506001600160a01b03821660009081526020819052604081208054839290620001239084906200026d565b90915550506040516001600160a01b038316906000907fddf252ad1be2c89b69c2b068fc378daa952ba7f163c4a11628f55a4df523b3ef906200016890859062000264565b60405180910390a36200017e6000838362000182565b5050565b505050565b828054620001959062000292565b90600052602060002090601f016020900481019282620001b9576000855562000204565b82601f10620001d457805160ff191683800117855562000204565b8280016001018555821562000204579182015b8281111562000204578251825591602001919060010190620001e7565b506200021292915062000216565b5090565b5b8082111562000212576000815560010162000217565b6020808252601f908201527f45524332303a206d696e7420746f20746865207a65726f206164647265737300604082015260600190565b90815260200190565b600082198211156200028d57634e487b7160e01b81526011600452602481fd5b500190565b600281046001821680620002a757607f821691505b60208210811415620002c957634e487b7160e01b600052602260045260246000fd5b50919050565b610c8d80620002df6000396000f3fe608060405234801561001057600080fd5b50600436106100df5760003560e01c8063395093511161008c578063a457c2d711610066578063a457c2d714610197578063a4beda63146101aa578063a9059cbb146101bd578063dd62ed3e146101d0576100df565b8063395093511461016957806370a082311461017c57806395d89b411461018f576100df565b806323b872dd116100bd57806323b872dd14610137578063313ce5671461014a578063359cf2b71461015f576100df565b806306fdde03146100e4578063095ea7b31461010257806318160ddd14610122575b600080fd5b6100ec6101e3565b6040516100f9919061086f565b60405180910390f35b61011561011036600461083b565b610275565b6040516100f99190610864565b61012a610292565b6040516100f99190610be1565b610115610145366004610800565b610298565b610152610331565b6040516100f99190610bea565b610167610336565b005b61011561017736600461083b565b610397565b61012a61018a3660046107ad565b6103eb565b6100ec61040a565b6101156101a536600461083b565b610419565b61012a6101b83660046107ad565b610492565b6101156101cb36600461083b565b6104a4565b61012a6101de3660046107ce565b6104b8565b6060600380546101f290610c1c565b80601f016020809104026020016040519081016040528092919081815260200182805461021e90610c1c565b801561026b5780601f106102405761010080835404028352916020019161026b565b820191906000526020600020905b81548152906001019060200180831161024e57829003601f168201915b5050505050905090565b60006102896102826104e3565b84846104e7565b50600192915050565b60025490565b60006102a584848461059b565b6001600160a01b0384166000908152600160205260408120816102c66104e3565b6001600160a01b03166001600160a01b03168152602001908152602001600020549050828110156103125760405162461bcd60e51b815260040161030990610a36565b60405180910390fd5b6103268561031e6104e3565b8584036104e7565b506001949350505050565b601290565b3360009081526005602052604090205442116103645760405162461bcd60e51b8152600401610309906109d9565b69021e19e0c9bab240000061037933826106c5565b61038442600a610bf8565b3360009081526005602052604090205550565b60006102896103a46104e3565b8484600160006103b26104e3565b6001600160a01b03908116825260208083019390935260409182016000908120918b16815292529020546103e69190610bf8565b6104e7565b6001600160a01b0381166000908152602081905260409020545b919050565b6060600480546101f290610c1c565b600080600160006104286104e3565b6001600160a01b03908116825260208083019390935260409182016000908120918816815292529020549050828110156104745760405162461bcd60e51b815260040161030990610b4d565b61048861047f6104e3565b858584036104e7565b5060019392505050565b60056020526000908152604090205481565b60006102896104b16104e3565b848461059b565b6001600160a01b03918216600090815260016020908152604080832093909416825291909152205490565b3390565b6001600160a01b03831661050d5760405162461bcd60e51b815260040161030990610af0565b6001600160a01b0382166105335760405162461bcd60e51b81526004016103099061091f565b6001600160a01b0380841660008181526001602090815260408083209487168084529490915290819020849055517f8c5be1e5ebec7d5bd14f71427d1e84f3dd0314c0f7b2291e5b200ac8c7c3b9259061058e908590610be1565b60405180910390a3505050565b6001600160a01b0383166105c15760405162461bcd60e51b815260040161030990610a93565b6001600160a01b0382166105e75760405162461bcd60e51b8152600401610309906108c2565b6105f2838383610791565b6001600160a01b0383166000908152602081905260409020548181101561062b5760405162461bcd60e51b81526004016103099061097c565b6001600160a01b03808516600090815260208190526040808220858503905591851681529081208054849290610662908490610bf8565b92505081905550826001600160a01b0316846001600160a01b03167fddf252ad1be2c89b69c2b068fc378daa952ba7f163c4a11628f55a4df523b3ef846040516106ac9190610be1565b60405180910390a36106bf848484610791565b50505050565b6001600160a01b0382166106eb5760405162461bcd60e51b815260040161030990610baa565b6106f760008383610791565b80600260008282546107099190610bf8565b90915550506001600160a01b03821660009081526020819052604081208054839290610736908490610bf8565b90915550506040516001600160a01b038316906000907fddf252ad1be2c89b69c2b068fc378daa952ba7f163c4a11628f55a4df523b3ef90610779908590610be1565b60405180910390a361078d60008383610791565b5050565b505050565b80356001600160a01b038116811461040557600080fd5b6000602082840312156107be578081fd5b6107c782610796565b9392505050565b600080604083850312156107e0578081fd5b6107e983610796565b91506107f760208401610796565b90509250929050565b600080600060608486031215610814578081fd5b61081d84610796565b925061082b60208501610796565b9150604084013590509250925092565b6000806040838503121561084d578182fd5b61085683610796565b946020939093013593505050565b901515815260200190565b6000602080835283518082850152825b8181101561089b5785810183015185820160400152820161087f565b818111156108ac5783604083870101525b50601f01601f1916929092016040019392505050565b60208082526023908201527f45524332303a207472616e7366657220746f20746865207a65726f206164647260408201527f6573730000000000000000000000000000000000000000000000000000000000606082015260800190565b60208082526022908201527f45524332303a20617070726f766520746f20746865207a65726f20616464726560408201527f7373000000000000000000000000000000000000000000000000000000000000606082015260800190565b60208082526026908201527f45524332303a207472616e7366657220616d6f756e742065786365656473206260408201527f616c616e63650000000000000000000000000000000000000000000000000000606082015260800190565b60208082526031908201527f6c6f636b2074696d6520686173206e6f7420657870697265642e20506c65617360408201527f652074727920616761696e206c61746572000000000000000000000000000000606082015260800190565b60208082526028908201527f45524332303a207472616e7366657220616d6f756e742065786365656473206160408201527f6c6c6f77616e6365000000000000000000000000000000000000000000000000606082015260800190565b60208082526025908201527f45524332303a207472616e736665722066726f6d20746865207a65726f20616460408201527f6472657373000000000000000000000000000000000000000000000000000000606082015260800190565b60208082526024908201527f45524332303a20617070726f76652066726f6d20746865207a65726f2061646460408201527f7265737300000000000000000000000000000000000000000000000000000000606082015260800190565b60208082526025908201527f45524332303a2064656372656173656420616c6c6f77616e63652062656c6f7760408201527f207a65726f000000000000000000000000000000000000000000000000000000606082015260800190565b6020808252601f908201527f45524332303a206d696e7420746f20746865207a65726f206164647265737300604082015260600190565b90815260200190565b60ff91909116815260200190565b60008219821115610c1757634e487b7160e01b81526011600452602481fd5b500190565b600281046001821680610c3057607f821691505b60208210811415610c5157634e487b7160e01b600052602260045260246000fd5b5091905056fea2646970667358221220132b7986d46010b965a7429cb4d652d0357c1338206e69fdb1ecfa31daa3ee2464736f6c63430008010033",
  "linkReferences": {},
  "deployedLinkReferences": {}
}